:10400000007F002025BD0000CDBB000021BD0000C9
:1040100021BD000021BD000021BD000021BD000028
:1040200000000000000000000000000021BD0000B2
:1040300021BD00000000000021BD000021BD0000E6
:104040000000000000000000000000000000000070
:104050000000000000000000000000000000000060
:104060000000000000000000000000000000000050
:104070000000000000000000000000000000000040
:104080000000000000000000000000000000000030
:104090000000000000000000000000000000000020
:1040A0000000000000000000000000000000000010
:1040B0000000000000000000000000000000000000
:1040C00010B5054C237833B9044B13B10448AFF352
:1040D00000800123237010BD280300200000000091
:1040E000200B020008B5034B1BB103490348AFF393
:1040F000008008BD000000002C030020200B0200FF
:1041000008B5084B1A785AB1002207481A701A7677
:1041100002F0F0FB05490648BDE808400AF0BCB9CA
:1041200008BD00BF3C0000200C000020A17301006E
:104130002C0B002008B5084B1A785AB1002207480A
:104140001A709A6002F0D6FB05490648BDE808409F
:104150000AF0A2B908BD00BFC40600200C00002070
:10416000357301002C0B002038B5114C237805461F
:104170000BB1FFF7DFFF0F4B1B782BB1FFF7C0FF31
:104180000D490E480AF088F901232370C4E9015350
:104190000B490A480023E3600AF060F9094B0A4919
:1041A0000648012D18BF1946BDE838400AF074B919
:1041B000C40600203C000020577301002C0B002097
:1041C00088730100517301004C7301009FED0C7A5C
:1041D000DFED0C7AB4EEC70AF1EE10FA0BDC9FEDBE
:1041E0000A7ADFED087AB4EEC70AF1EE10FA05D5C7
:1041F00030EE270AF7E730EE670AEBE7704700BFBB
:10420000000034430000B443000034C314200BF01A
:1042100027BA70B506250024C6B2304609F020FD45
:10422000044404200BF01CFA013DF6D1062094FB57
:10423000F0F070BD2DE9F04104461320FFF7E9FFCF
:10424000804620601220FFF7E4FF074660601020E0
:10425000FFF7DFFF0646A0600F20FFF7DAFF0546F5
:10426000E0600E20FFF7D5FF104B20611B689845DA
:10427000B4BF4FF000084FF001089F42B4BF0027C1
:1042800001279E42B4BF002601269D42B4BF0025EF
:1042900001259842B4BF00200120207684F81480C4
:1042A0006775A675E5752046BDE8F0810800002019
:1042B000002808B519DD07EE900ADFED0F0AB8EE09
:1042C000E70A0EF059FADFED0D7A20EE270AF0EE3C
:1042D000007AB4EEE70AF1EE10FA09D4DFED087ABD
:1042E000B4EEE70AF1EE10FA01DD9FED050A08BD14
:1042F000B0EE670AFBE700BFC3649ABF6643894616
:1043000000007A442DE9F8432DED028B80460D46DE
:1043100091460BF0E9F90026074634465FFA88F823
:10432000AE4208DA404609F09BFC044405200BF03D
:1043300097F90136F4E707EE105A07EE904AB8EE07
:10434000C70AF8EEE77ADFED150A9FED158A87EECA
:10435000800A0EF011FA20EE088AF0EE007AB4EE30
:10436000E78AF1EE10FA16D4DFED0E7AB4EE678A22
:10437000F1EE10FAC8BFB0EE678AB9F1000F04D0B1
:104380000BF0B2F9C01BC9F80000B0EE480ABDEC52
:10439000028BBDE8F883B0EE678AEEE7C3649ABF8C
:1043A0006643894600007A4438B54D484D4B4E4C23
:1043B0002DED028B0122B0EE408A90ED030A1A70B7
:1043C00002F0BAFC38EE000A9FED487ADFED487A39
:1043D00084ED000A0023B4EEC70AF1EE10FA12DCF5
:1043E0000BB184ED000AD4ED007ADFED426A9FED57
:1043F000407A0023F4EEE67AF1EE10FA07D577EE74
:10440000877A0123F6E730EE670A0123E3E70BB171
:10441000C4ED007AB5EEC08AF1EE10FAD4BFF1EE29
:10442000488AF0EE488A02F085F907EE900AF8EE25
:10443000E77A9FED317A314D67EEA87A67EE877A99
:1044400017EE900A0DF0F6FB23A3D3E900230DF03D
:1044500073FD0DF03FFF0DF0EDFB0022284B0DF03A
:104460008BFA0DF0EFFE2860264802F02FF8264B5D
:104470001860244802F032F8244B18600BF034F92D
:10448000234BB5EEC08AF1EE10FA1860C7BF6FF08B
:104490003202332133226FF032011E4802F0BEFA9D
:1044A0001D491E4809F0DAFF20680DF0C3FB41ECFE
:1044B000100B002119480AF03DF91949174809F075
:1044C000CDFFBDEC028B296814480A22BDE83840B4
:1044D0000AF056B8AFF300800000000000CCB540F1
:1044E00058060020C0060020A40600200000344327
:1044F0000000B443000034C300007E42BC0600202C
:104500000000E03F44030020B0060020B406002075
:10451000B80600200C0000202D6F01002C0B00209D
:10452000326F0100FFFFFFFFF8B5774C6668032E7E
:104530002DED048B254605D9BDEC048BBDE8F84074
:10454000FFF7DEBD714B53F82630012B1CDC7049A0
:10455000704809F0A1FFE37E53B9012323779FED53
:104560006E0AFFF721FF02232376BDEC048BF8BD12
:1045700000232370694904232376BDEC048B65482E
:10458000BDE8F84009F088BF62695F1EBA4215DBDA
:10459000E37E01252BB962495E4809F07DFF25774E
:1045A000DDE760495B4809F077FF9FED5B0A2577FF
:1045B000FFF7FAFE022323765B49DEE7A1680129B3
:1045C00016BF9C1E541CA41A002C01DB9C4209DB64
:1045D0005649504809F042FF0A2221464D4809F049
:1045E000C5FFA9E7524B534853F8263090ED030A14
:1045F00090ED019AD0ED028A03EBC4031A685B6860
:104600002A656B6502F098FBD5ED140AB0EE408A7E
:1046100095ED150A70EEC90A30EE680A0EF0CAFA76
:10462000DFED3D7A60EE277A17EE900A0DF002FB7F
:1046300033A3D3E900230DF07FFC0DF04BFE07EE12
:10464000900A37EEC80AFFF7C1FD3B493148B0EE8A
:10465000408A09F003FF69692E480A22013109F0F6
:1046600083FF36492B4809F0F9FE0A2239462948CA
:1046700009F07AFF3249274809F0F0FE314B25480E
:1046800053F8261009F0F3FE2F49224809F0E6FE00
:104690000A2221461F4809F067FF2C491D4809F0EE
:1046A000DDFE286D0DF0C6FA41EC100B0221194811
:1046B0000AF040F82649174809F0D0FE686D0DF061
:1046C000B9FA41EC100B022112480AF033F82149E3
:1046D000104809F0C3FE18EE100A0DF0ABFA41ECD9
:1046E000100B01210B480AF025F81B49094809F075
:1046F000D3FEB0EE480AFFF757FE02232B7634E7CD
:10470000182D4454FB2109403C0000200075010095
:10471000BF7101002C0B0020000034430272010025
:104720002D7201006C720100A8720100D5720100A7
:10473000A400002058060020017301000B73010043
:104740000D73010094000020177301002273010013
:10475000576B010027730100327301002DE9F84304
:10476000394C2578074688461646002D67D1032820
:1047700066D800294FF0010914BF4FF0FF334B46B4
:10478000A36084F8009060600AF0AEFF331C18BF8D
:10479000012323762D4B6561C4E9030684F8199043
:1047A00053F827402A492B484C45CCBF04F1FF352C
:1047B000254609F053FE284B264853F8271009F0E8
:1047C00056FE2649234809F049FE254B2549214834
:1047D000B8F1000F08BF194609F040FE22491D48F4
:1047E00009F03CFE0A2229461A4809F0BDFE1F497D
:1047F000184809F033FE21460A22164809F0B4FE93
:104800001B49144809F02AFEB8F1000F15D01949C8
:10481000104809F023FE18490E4809F01FFE3146E2
:104820000A220C4809F0B6FE14490A4809F034FE81
:104830000EB9FFF779FE012502E01149E8E70025EE
:104840002846BDE8F88300BF3C0000200075010049
:10485000C57301002C0B002094000020D7730100C9
:10486000C1730100B9730100E1730100FA73010023
:10487000FF730100087401004774010052740100C5
:104880002674010070B54E4D2B78002B00F09780F8
:104890004C4801F01BFE4C4B1C68041B494801F0BE
:1048A0001DFE4A4B1B68C01A0028B8BF4042484B47
:1048B000002CB8BF6442A0421B68B8BF20468342A8
:1048C000444C1DDC444802F015F800264349444896
:1048D0002E7009F0E1FD237F002B70D0E37E267758
:1048E0004BB901233F496376A37623763C48BDE864
:1048F000704009F0D1BD0423267023763A49F5E7CC
:10490000667F002E4DD0636A012B28D1022363629B
:1049100001F010FF07EE900A9FED347A2948F8EE77
:10492000E76AF6EE007AE6EE877AFDEEE77AC4ED06
:104930000C7A01F0CBFDA062224801F0CFFD662188
:10494000E062254801F004FF2949254809F086FD69
:10495000216B23480A22BDE8704009F011BE032BE9
:104960002DD10423636201F0E5FE07EE900A9FED6E
:104970001F7A1448F8EEE76AF6EE007AE6EE877AD8
:10498000FDEEE77AC4ED0C7A01F0A0FDA0620D48BF
:1049900001F0A4FD6621E0620F4801F0D9FE15493F
:1049A000D3E70AF0A1FE144B1B68C01AB0F57A6F6A
:1049B00005D9094801F09EFF2E70104996E770BD99
:1049C000C006002044030020B0060020B4060020EA
:1049D000BC0600203C0000200C000020BC6D010043
:1049E0002C0B0020416F01008B6F0100A8B71D3F09
:1049F000D86F0100F86F0100B8060020197001009F
:104A000010B50D4C0D49204609F046FD0C492046D5
:104A100009F042FD0B49204609F03EFD0A492046B7
:104A200009F03AFD2046094909F036FD0848BDE87D
:104A3000104002F0A9B900BF2C0B002056740100F1
:104A4000677401008B7401009A740100AF74010057
:104A5000580600202DE9F84FC04D10F05AF82E7876
:104A600044B22F4646B1582C00F04081BC49BD48A5
:104A7000BDE8F84F09F010BD502C00F0668121DC34
:104A8000442C78D007DC0D2C03D0412C69D00A2CA3
:104A900031D1BDE8F88F482C00F05C81492C00F042
:104AA000B081452C27D1B049AE4809F0D7FC33215D
:104AB0000A22AC4809F05AFD3321AC48BDE8F84F52
:104AC00001F0CABE542C00F093810DDC522C00F092
:104AD000308157DDA649A34809F0DEFC6621A348D2
:104AE000BDE8F84F01F04FBE572C12D0582C00F003
:104AF000FD80562C55D02038C0B25E28C9D89D49BB
:104B0000984809F0ABFC21469648BDE8F84F09F0FB
:104B1000D7BC9949934809F0BFFC984801F0D6FCEE
:104B2000974B1860954801F0D9FC964B18600AF035
:104B3000DBFD954B95491860954B8A4801221A7008
:104B400009F08CFC0A226421864809F032FD914963
:104B5000844809F0A1FC66218448BDE8F84F01F0C3
:104B6000F7BD8D497F4809F097FC9FED8C0ABDE8A1
:104B7000F84FFFF719BC8A497A4809F08DFC9FED80
:104B8000890AF4E78849774809F068FC33210A224A
:104B9000744809F0EBFC33217448BDE8F84F01F08C
:104BA0000DBE82496F486F4D09F076FC734801F0E5
:104BB0008DFC0646714801F091FC044601F0BAFDF7
:104BC00082460AF091FD7A498146664809F046FC22
:104BD0000A225146634809F0C9FC6621634801F086
:104BE000B7FD664801F072FC871B644801F076FC53
:104BF000001B27EAE77720EAE0784745BB46B8BFC5
:104C0000C346DA4532DD0AF06FFDA0EB09006328E8
:104C100028D96849284609F021FC0A223946284645
:104C200009F080FC6449284609F018FC0A22414634
:104C3000284609F077FC6149284609F00FFC07EB8C
:104C400008010A224910284609F06CFC5C492846F4
:104C500009F004FC0A225946284609F091FC0AF0A2
:104C600043FD814614200AF0FBFCBAE73F4801F0FF
:104C700041FE424801F02AFC851B404801F02EFC11
:104C80005049041B374809F0E9FB0A2229463548F8
:104C900009F048FC4849334809F0E0FB0A22214664
:104CA000304809F06DFC84EAE476002DA6EBE4764A
:104CB000B8BF6D42AE42B8BF2E464349294809F0FD
:104CC000CDFB0A223146274809F05AFC304601F054
:104CD00037FD3E49234809F0C1FB01F02BFD0A22B4
:104CE0000146204809F042FC3949C0E639491D48CF
:104CF00009F0D2FB1D4801F0FDFD254A0023137089
:104D0000354A3B70117821B134491648137009F0C7
:104D1000C3FB334C2368002B3FF4BBAE3149114831
:104D200009F0BAFB102120680CF018FE0023236064
:104D3000AFE62D490B4809F0AFFB0C4801F0DAFD56
:104D40002A4802F013F82E70A3E62848BDE8F84F71
:104D500002F01AB8BDE8F84FFFF752BEC0060020B7
:104D60002CEE01002C0B0020897001000C000020AB
:104D70004F700100BC71010021700100440300204C
:104D8000A8060020AC060020540300203870010063
:104D90007006002052740100637001000000B4C26C
:104DA000937401000000B4426A700100A870010011
:104DB000B9700100C9700100D2700100D670010005
:104DC000DC700100E2700100EB7001000071010075
:104DD0001C710100E9EE0100450300202C71010067
:104DE0004C0300204A710100A974010058060020FC
:104DF00009490A4809F050FB0948BDE8F84F01F09D
:104E000019BE084A13782BB901211170064A0749C7
:104E100013602CE606492AE6FEEE01002C0B00206A
:104E20000C000020450300204803002068710100A9
:104E30009F71010070B5134D134E144C86B0284677
:104E400002F048FD124B31681A68284602F0BEFD98
:104E50001049204609F002FB3168204609F026FB84
:104E60002946684602F0CAFC0B49204609F0F6FACA
:104E70006946204609F02EFB084803F07DFB06B08A
:104E800070BD00BF78070020040000202C0B00201C
:104E900000000020E2740100F37401007406002099
:104EA00070B5502109480A4D0A4E03F0A1FA0A498B
:104EB0000A4801F037FE0024281931460C3409F065
:104EC000BEFCB4F5407FF7D170BD00BF7406002072
:104ED00058030020F6F1010044030020580600208A
:104EE00038B5084CA4F5407520460C3C09F05CFC34
:104EF000AC42F9D10448054B40F8103BBDE83840BE
:104F000002F064BE4C0600207406002020F501006B
:104F100010B5194C4FF4E131204608F0F5FA174965
:104F2000204609F0B9FA1649204609F0B5FA1549A4
:104F3000204609F0B1FA1449204609F0ADFA1349A8
:104F4000204609F0A9FA124801F0E8FC114801F0E6
:104F5000DBFA9FED111A1148F0EE410AB0EE410A5A
:104F600001F0EAFDFFF752F920460D4909F094FAE5
:104F7000BDE81040FFF75EBF2C0B00209BEE010048
:104F8000AEEE0100C8EE0100DBEE0100EEEE010026
:104F90000C00002044030020000000005806002000
:104FA00003EF01002DE9F04F2DED048BA1B00D2290
:104FB0000146044601A809F0DFFB204603F03EF855
:104FC0007D4913A809F03BFC13A901A809F01EFDB7
:104FD0000028C0F28880012513A809F0E5FB002D08
:104FE00000F0C7807549764F764EDFF8208213A80F
:104FF00009F025FC0025414613A809F0BEFC7249C2
:10500000DFF8E491DFF808B219A809F018FC6F4B3B
:1050100016A853F8251009F012FC16A919A809F0D2
:10502000BCFC6B4909F0C5FC014613A809F094FCCF
:1050300016A809F0B9FB19A809F0B6FB654913A831
:1050400009F09BFC4FF0000A3A6852456FDDBAF157
:10505000000F03D0494613A809F08FFC326802EB19
:10506000CA02D2ED008A92ED018A414613A809F0E6
:1050700084FC594619A809F0E2FBB0EE680A032146
:1050800016A809F029FC16A919A809F086FC4946BA
:1050900009F08FFC014613A809F05EFC16A809F080
:1050A00083FB19A809F080FB4B4919A809F0C7FB3D
:1050B000B0EE480A032116A809F00EFC16A919A89B
:1050C00009F06BFC014613A809F046FC16A809F08C
:1050D0006BFB19A809F068FB404913A809F04DFCC7
:1050E0000AF1010AB0E73E4916A809F0A8FB16A983
:1050F00001A809F08BFC002804DB012516A809F0A3
:1051000053FB69E7374919A809F099FB19A901A8C8
:1051100009F07CFCC54319A8ED0F09F045FBEDE74C
:10512000314913A809F029FC0437043663E72F49F5
:1051300013A8013509F021FC042DF1D12C4913A845
:1051400009F01BFC2B49204609F0A6F92A49204604
:1051500009F0A2F92949204609F09EF9204609F0F4
:1051600095F913A9204609F07DF913A809F01CFB55
:10517000D9E1234919A809F062FB19A901A809F08E
:1051800045FC064619A809F00FFB002E42DB194921
:10519000204609F081F91B49204609F07DF917499D
:1051A000204609F079F9204609F070F916492046A1
:1051B00009F054F9B7E100BF246B01001F6F010033
:1051C00000750100A40000204D6B01009400002038
:1051D000566B0100596B0100696B01006F6B010098
:1051E000316B01003E6B0100576B01006E6B0100DB
:1051F000716B0100736B0100836B0100A26B0100F6
:10520000B46B0100C36B0100B1A801004B6B01003E
:10521000646B01009F4919A809F011FB19A901A8A5
:1052200009F0F4FB064619A809F0BEFA002EC0F2F8
:105230005181994D994913A809F001FB984919A882
:1052400009F0FDFA0A22297816A809F017FB16A919
:1052500019A809F0A2FB934909F0ABFB014613A87A
:1052600009F07AFB16A809F09FFA19A809F09CFA30
:105270008D4919A809F0E3FA0A22297E16A809F037
:10528000FDFA16A919A809F088FB864909F091FBD7
:10529000014613A809F060FB16A809F085FA19A8C1
:1052A00009F082FA814919A809F0C9FA0A22696845
:1052B00016A809F0E3FA16A919A809F06EFB7949B6
:1052C00009F077FB014613A809F046FB16A809F080
:1052D0006BFA19A809F068FA754919A809F0AFFA2C
:1052E0000A22A96816A809F0C9FA16A919A809F08E
:1052F00054FB6C4909F05DFB014613A809F02CFB37
:1053000016A809F051FA19A809F04EFA694919A826
:1053100009F095FA0A22696916A809F0AFFA16A9E8
:1053200019A809F03AFB5F4909F043FB014613A8AD
:1053300009F012FB16A809F037FA19A809F034FA97
:105340005D4919A809F07BFA0A22697E16A809F0BE
:1053500095FA16A919A809F020FB524909F029FB72
:10536000014613A809F0F8FA16A809F01DFA19A8C1
:1053700009F01AFA514919A809F061FA95ED140AD1
:10538000032116A809F0A8FA16A919A809F005FB27
:10539000444909F00EFB014613A809F0DDFA16A8EE
:1053A00009F002FA19A809F0FFF9454919A809F00E
:1053B00046FA95ED150A032116A809F08DFA16A9EB
:1053C00019A809F0EAFA374909F0F3FA014613A8D7
:1053D00009F0C2FA16A809F0E7F919A809F0E4F9EA
:1053E000384919A809F02BFA0A22697F16A809F092
:1053F00045FA16A919A809F0D0FA2A4909F0D9FAEC
:10540000014613A809F0A8FA16A809F0CDF919A8C1
:1054100009F0CAF92C4919A809F011FA0A22696A97
:1054200016A809F02BFA16A919A809F0B6FA1D4911
:1054300009F0BFFA014613A809F08EFA16A809F080
:10544000B3F919A809F0B0F92B7E012B19D000256A
:105450001E4919A809F0F3F90A22294616A809F0ED
:105460001FFA16A919A809F098FA014613A809F01D
:1054700073FA16A809F098F919A809F095F91449D2
:105480005DE60AF031F9EB682D69C01A8542DED974
:105490002D1ADDE7DB6B01003C0000204B6B0100A7
:1054A000ED6B0100576B0100F76B0100006C010010
:1054B0000E6C01001B6C01002B6C01003E6C0100A6
:1054C000496C0100546C0100666C0100776C0100AE
:1054D0006F6B0100A74919A809F0B1F919A901A832
:1054E00009F094FA064619A809F05EF9002E28DBA7
:1054F000A14B1A781AB31A7E012A20D1597EF1B134
:10550000997E5D76B9B1DA769C499D489D764FF0DB
:10551000FF329A605D6108F0BFFFFFF705F8994917
:10552000204608F0B9FF01A809F03EF921B0BDEC12
:10553000048BBDE8F08FFEF7F7FF9349F0E793493E
:10554000EEE7934919A809F07AF919A901A809F019
:105550005DFA064619A809F027F9002EC0F2A780C7
:105560008C4919A809F06BF919A901A809F04EFA9C
:10557000064619A809F018F9002E49DB864919A832
:10558000063609F05CF9039B9E420FD2314601A812
:1055900009F01CFA90F90010A1F13003DBB2092BDD
:1055A00004D819A809F0EEF90136ECE719A809F0BA
:1055B0005DFA074619A809F0F7F8784919A809F023
:1055C0003EF919A901A809F021FA064619A809F01F
:1055D000EBF8002E32DB704916A809F030F9351DC2
:1055E0006F4E039B9D4215D2294601A809F0EEF9A2
:1055F00090F90010A1F10D03DBB2192B03D826FAA4
:1056000003F3DB0706D416A809F0BCF90135E8E777
:105610002F46D2E716A809F01DFA624919A809F029
:105620000EF919A916A809F0F1F9054619A809F00B
:10563000BBF8ED4316A8ED0F09F0B6F85A4919A8C2
:1056400009F0FDF819A901A809F0E0F9064619A822
:1056500009F0AAF8002E26DB4F4919A8063609F0F2
:10566000EEF8039B9E420FD2314601A809F0AEF935
:1056700090F90010A1F13003DBB2092B04D819A86E
:1056800009F080F90136ECE719A809F0EFF90646B0
:1056900019A809F089F8324629463846FFF75EF81E
:1056A00018B142493CE70026F5E7414938E741494E
:1056B00019A809F0C4F819A901A809F0A7F9054625
:1056C00019A809F071F8002D03DBFEF719FD3A491E
:1056D00026E73A4919A809F0B2F819A901A809F072
:1056E00095F9054619A809F05FF8002D2FDB34491C
:1056F00019A809F0A4F819A901A809F087F9054625
:1057000019A809F051F8002D1FDB05F10A036A1DE5
:1057100001A916A809F07EF92A4919A809F08FF8FD
:1057200019A916A809F072F90028B4BF4FF0FF3587
:10573000012519A809F038F82846FEF715FD224979
:10574000204608F0A9FE16A810E52049E8E6204901
:1057500019A809F074F819A901A809F057F9054624
:1057600019A809F021F8002D36DBFEF7E3FC1949F2
:10577000D6E600BF8B6C01003C0000209E6C01004F
:105780002C0B0020CF6C0100066D0100366D01006E
:105790006E6D01007F6D0100F6F10100866D010064
:1057A000010008028B6D01008F6D0100966D0100F4
:1057B000BF6D0100F06D0100006E01002E6E010052
:1057C000E7EB01003F6E0100446E01007E6E0100B8
:1057D000BA6E0100D06E01008D4919A809F02FF8AA
:1057E00019A901A809F012F9054619A808F0DCFF6B
:1057F000002DC0F2D78019A8FEF71CFD854890ED5A
:10580000030A90ED019AD0ED028A01F095FA8249DF
:1058100004A8B0EE408A09F012F8804916A809F0F1
:105820000EF8B0EE490A022113A809F055F813A9A1
:1058300016A809F0B2F87A4909F0BBF8014604A8A5
:1058400009F08AF813A808F0AFFF16A808F0ACFF1B
:10585000744916A808F0F3FFB0EE680A022113A8F5
:1058600009F03AF813A916A809F097F86C4909F05D
:10587000A0F8014604A809F06FF813A808F094FFF7
:1058800016A808F091FF684916A808F0D8FFB0EEF6
:10589000480A012113A809F01FF813A916A809F056
:1058A0007CF85F4909F085F8014604A809F054F82E
:1058B00013A808F079FF16A808F076FF5B490AA83C
:1058C00008F0BDFF0A22199907A808F0D7FF07A919
:1058D0000AA809F062F8524909F06BF80A22054655
:1058E0001A990DA808F0CAFF0DA9284609F055F825
:1058F0004B4909F05EF80A2205461B9910A808F0EA
:10590000BDFF10A9284609F048F8454909F051F8AB
:105910000A2205461C9913A808F0B0FF13A92846CF
:1059200009F03BF83E4909F044F80A2205461D9962
:1059300016A808F0A3FF16A9284609F02EF83C493E
:1059400009F037F8014604A809F006F816A808F08F
:105950002BFF13A808F028FF10A808F025FF0DA8BA
:1059600008F022FF07A808F01FFF0AA808F01CFF94
:10597000304904A809F001F82F49204608F08CFDB1
:105980002E49204608F088FD2D49204608F084FD68
:10599000204608F07BFD04A9204608F063FD04A81A
:1059A000FFF7E4BB274919A808F049FF19A901A886
:1059B00009F02CF8054619A808F0F6FE002D14DBB6
:1059C000214919A808F03BFF19A901A809F01EF800
:1059D000054619A808F0E8FEA91C01A808F0F6FF82
:1059E00090F90000FFF736F85BE61349204608F00F
:1059F00053FD1649204608F04FFD1149204608F096
:105A00004BFD204608F042FD1149FFF7D0BB00BF17
:105A10000A6F0100580600204B6B0100646B010007
:105A2000576B0100696B0100146F01001A6F0100D0
:105A3000716B01006F6B0100736B0100836B0100E0
:105A4000A26B0100216F01002A6F0100C36B0100EE
:105A50001075010000B591B00E49684602F0DAFCFD
:105A6000049B01330FD0694608A802F08BF808A800
:105A7000FFF798FA08A802F0A9F8012009F0F0FD54
:105A8000684602F00BFB684602F0A0F811B05DF822
:105A900004FB00BF740600202DE9F0472DED068BB6
:105AA0003A4CBCB009F020FE2368C01A312805D951
:105AB000374801F071F809F017FE2060354807F00B
:105AC00064FD70B13348334C07F0C0FD40B2FEF7BF
:105AD000C1FF204607F059FD18B1204607F0B6FD7A
:105AE000F7E72D4CFEF7CEFE2378002B71D009F09E
:105AF000FBFD257E012D07D1E368C01A236998427A
:105B000067D3FEF711FD64E0022D40F0F581234BD1
:105B10001B78002B5DD11E4BD4ED147A93ED017AE6
:105B200094ED150A77EEC77A93ED027A30EE470AC4
:105B300020EE000AA7EEA70A0DF03EF8B0EE408A6C
:105B400000F0F8FDDFED167AC8EE276A07EE900A3E
:105B5000B8EEE77AF6EE007AE6EE877A1148FDEEC7
:105B6000E77AC4ED137A00F0B1FC60640D4800F0F0
:105B7000B5FCE36CA064002B18DC0B49054808F069
:105B80006DFC636901336361BBE700BF5003002014
:105B9000580600202C0B00203C000020C0060020EE
:105BA0005CC74242440300204CEB01006621BD4823
:105BB00000F0CEFD0323BC49BC48237608F04EFC20
:105BC000E16CBA480A2208F0ADFCB949B74808F0C0
:105BD00063FCB84D2B78002B50D02478002C4DD18D
:105BE000224603211220FEF78DFB224603210F20BF
:105BF000F0EE409AFEF786FB224603211320B0EE1A
:105C0000409AFEF77FFBF3EE0E8A224603210E2018
:105C1000B0EE408AFEF776FBF4EEE89AF1EE10FA69
:105C200010D8B4EEE89AF1EE10FA0BD8B4EEE88A88
:105C3000F1EE10FA06D8B4EEE80AF1EE10FA94BFCD
:105C4000012400246B68F4EEC99A012BAB6818BFDD
:105C5000B0EE408AF1EE10FA54BFB0EE49AAB0EEB1
:105C600069AA032B40F0ED82002C00F0E282EB6881
:105C7000002B40F0CE8209F037FDE8608E4B1B7898
:105C8000002B35D08D4E09F02FFD3368C01A6328E4
:105C90002ED98B4800F01AFC8A4B1C68041B8848DC
:105CA00000F01CFC884B1968411A21EAE17524EACE
:105CB000E47486497D4808F0D1FB0A2221467B48DE
:105CC00008F030FC8249794808F0C8FB0A222946CE
:105CD000764808F027FC7F49744808F0BFFB61193B
:105CE0000A224910714808F04BFC09F0FDFC3060B5
:105CF000794B1B78002B5ED0784C09F0F5FC2368BB
:105D0000C01AF92857D909F0EFFC20600DA8FEF75A
:105D100091FA6B4800F0DAFB3CAC0546684800F0AD
:105D2000DDFB002344F8C03D064622460621132031
:105D3000FEF7E8FA22460621122010EE107AFEF74E
:105D4000E1FA22460621102010EE108AFEF7DAFA58
:105D5000224606210F2010EE109AFEF7D3FA2246B3
:105D600006210E2010EE10AAFEF7CCFA10EE100A53
:105D70000BF060FFCDE90A0150460BF05BFFCDE967
:105D8000080148460BF056FFCDE9060140460BF0EE
:105D900051FFCDE9040138460BF04CFF0096CDE9E8
:105DA00002012B46A0214E4A14A80EF09DFD14A915
:105DB0003E4808F07BFB4B4C052009F051FCFFF7F7
:105DC00049FE2368002B68D01B7B002B65D009F0AF
:105DD0008BFC23689A685968821A8A425DD398605E
:105DE00014A8FEF727FA1498FEF762FA159810EE39
:105DF000108AFEF75DFA169810EE107AFEF758FA40
:105E0000179810EE106AFEF753FA189810EE105A11
:105E1000FEF74EFA3449254810EE104A08F01EFBF2
:105E200040460BF007FF41EC100B01211F4808F022
:105E300081FC2E491D4808F011FB38460BF0FAFE94
:105E400041EC100B0121194808F074FC284917484F
:105E500008F004FB30460BF0EDFE41EC100B012185
:105E6000124808F067FC2349104808F0F7FA284662
:105E70000BF0E0FE41EC100B01210C4808F05AFC3D
:105E800013490A4808F0EAFA20460BF0D3FE41EC29
:105E9000100B0121054808F04FFC3CB0BDEC068B0F
:105EA000BDE8F0870C0000207AEB01002C0B0020ED
:105EB00095EB0100C406002070060020540300206A
:105EC00044030020A8060020AC060020C970010091
:105ED000D2700100D6700100450300204803002065
:105EE00037EE01004C03002084EE01008DEE01002E
:105EF00092EE010096EE0100032D7FF46AAE0022BF
:105F000029461220FEF7FEF9002229460F20B0EEA6
:105F1000408AFEF7F7F9667FB4EE408AF1EE10FA98
:105F2000C8BFB0EE408A002E40F0908094F83C301C
:105F3000E3B9F3EE0E7AB4EEE78AF1EE10FA00F26E
:105F40003281012384F83C3009F0CEFBC249206441
:105F5000C24808F083FA18EE100A0BF06BFE41EC11
:105F6000100B0221BD4808F0E7FB32E609F0BCFB4C
:105F7000236CC01AB0F5FA6FFFF42BAE32462946F7
:105F80001220FEF7BFF9324629460F20B0EE408AB4
:105F9000FEF7B8F9B4EE408AF1EE10FAC8BFB0EEE1
:105FA000408AF3EE0E7AB4EEE78AF1EE10FA84F846
:105FB0003C6049D8324629461320FEF7A3F9324601
:105FC00029460E20F0EE408AFEF79CF9F4EEC08AD6
:105FD000F1EE10FA4FF00103CCBF1A464FF0FF323A
:105FE0009F4822626377636200F084FC1E2009F000
:105FF00037FB236A012B0CBF0E231323A36300F08E
:1060000099FB07EE900A9FED977A9FED970AF8EEBD
:10601000E76AF6EE007AE6EE877AFDEEE77AC4EDFF
:106020000D7AD4ED087AF8EEE77A27EE800AFEF7CB
:10603000BBF98E49894808F011FA216A87480A227B
:1060400008F092FA8A4983E78A4981E7636A022B5A
:1060500038D129460022A06BFEF754F98648B0EEED
:10606000408A00F033FAA36AC01A0DF002FE05461A
:10607000814800F033FAE36AC01A0DF0FAFDDFED53
:106080007F7AB4EEE78AF1EE10FA06DA8542636BA6
:10609000B8BF0546AB423FF79CAD714800F02AFC03
:1060A0001E2009F0DDFA03236362236ADFED6E7AB6
:1060B0005B4200EE103AB8EEC00A20EE270AFEF767
:1060C00073F986E5042B7FF484AD6B4800F0FEF98C
:1060D000A36AC01A0DF0CDFD0646674800F0FEF930
:1060E000E36AC01A0DF0C5FD236BB042B8BF30465D
:1060F00083423FF76EAD5A4800F0FCFB1E2009F0CA
:10610000AFFA05235E49636254480023637708F0C1
:10611000C3F95C4BD4ED147A93ED017A94ED150A32
:1061200077EEC77A93ED027A30EE470A20EE000A46
:10613000A7EEA70A0CF040FDB0EE408A00F0FAFA94
:10614000DFED517AC8EE276A07EE900AB8EEE77ADB
:10615000F6EE007AE6EE877A4748FDEEE77AC4ED80
:10616000137A00F0B3F96064434800F0B7F9E36CC8
:10617000A064002B04DC4549384808F08DF900E59F
:106180004349364808F06AF90A22E16C334808F0BE
:10619000C9F94049314808F07FF96621304800F0DC
:1061A000D7FA257615E5344800F090F9636CC01AEB
:1061B0000DF05FFD0546304800F090F9A36CC01A61
:1061C0000DF057FDE36CA842B8BF284683423FF765
:1061D00000AD234800F08EFB2F49204808F03EF91F
:1061E00061691E480A22013108F0BEF92B491B489B
:1061F00008F034F961682A4B184853F821100A2234
:1062000008F0B4F9636950200133636109F028FA9A
:1062100077E409F069FAEB68C01A42F20F7398420A
:106220007FF62CAD1F490D4808F036F9FDF782FFC7
:1062300024E50123C5E902341B49084808F02CF97C
:106240001CE5022B36D1194B1B78002B7FF416ADC1
:106250000123AB601649F0E79DEB01002C0B0020F9
:106260000C000020626E83400000B442D3EB0100BA
:10627000C8EB0100EDEB01004403002000001842D0
:1062800015EC0100580600205CC7424232EC0100C8
:1062900075EC010095EB0100A8EC01000B73010007
:1062A00000750100D8EC010028ED0100C0060020B7
:1062B00049ED0100F4EEE89AF1EE10FA1CD9B4EEC3
:1062C000E89AF1EE10FA17D9B4EEE88AF1EE10FA76
:1062D00012D902235048AB6000F00CFBD5ED017AD7
:1062E0009FED4E0AF8EEE77A27EE800AFEF75CF89B
:1062F0004B494C4808F0D0F84CB1474800F0FAFA46
:106300000323AB6009F0F0F94749E86095E7B4EE84
:10631000E8AAF1EE10FA10D802233F48AB6000F073
:10632000E9FA95ED010ADFED417AB8EEC00A20EEF8
:10633000270AFEF739F83E497FE7F2EE0E7AB4EE0F
:10634000E78AF1EE10FA33D5C8EE276A9FED397A65
:10635000DFED397AE6EE877ABBEE047ADFED376A55
:106360006B6867EEA67AB5EEC07AFDEEE77A17EEB7
:10637000902A3C2AB8BF3C22FF2AA8BFFF22012B4B
:1063800041D1F1EE10FA33D5FDEEC77A17EE903A0F
:1063900013443C2AB8BF3C2211461A463C2AB8BFD7
:1063A0003C22FF2AA8BFFF221B4800F037FB65E410
:1063B000B3EE097AB4EEC78AF1EE10FAF7EE007A7E
:1063C00013DD38EE478AC8EE076A9FED1D7AE6EEC8
:1063D000877ADFED1C6AF4EEE67AF1EE10FAB3EE9E
:1063E000047ABBDDF0EE667AB8E79FED177AB5E781
:1063F0000DDDBDEEC77A17EE101A1144FF2908DC37
:1064000013460A46C5E7F1EE10FAF2D4BCDC134697
:10641000BFE7FF21C2E700BF0C0000200000B4422C
:1064200072ED01002C0B0020DBED01000000B4C276
:1064300011EE0100CDCCCC3E9A99193F0000C84224
:10644000CDCC4C3E9A99993F0000000010B5082031
:1064500008F068FF0446022008F064FF094B00348E
:1064600018BF01241B78003018BF012084420CBFE4
:106470004FF0FF30012003B14042034A1368184433
:10648000106010BDDC060020D406002010B50920E5
:1064900008F048FF0446032008F044FF094B00348D
:1064A00018BF01241B78003018BF012084420CBFA4
:1064B0004FF0FF30012003B14042034A13681844F3
:1064C000106010BDB4000020D806002072B6024B48
:1064D000186862B6704700BFD406002072B6024B3F
:1064E000186862B6704700BFD806002072B6034A2B
:1064F00000231360024A136062B67047D40600207E
:10650000D8060020FFFFFFFFF8B502212DED028B1A
:106510000446082008F0E2FE0221084608F0DEFEEC
:106520000221092008F0DAFE0221032008F0D6FE3D
:10653000022006F056FF0646032006F052FF022214
:1065400005465B49304606F0BDFF02225949284600
:1065500006F0B8FF2046584C584DFFF7C7FF584982
:10656000204607F07BFF0A222968204607F0FCFF3F
:106570005449204607F072FF5349204607F06EFF4A
:106580000A220821204607F0EFFF5049204607F075
:1065900065FF0A220221204607F0E6FF4C4920460B
:1065A00007F05CFF0A220921204607F0DDFF494978
:1065B000204607F053FF0A220321204607F0D6FFAA
:1065C000286807EE900AF8EEE77A17EE900A0BF0CB
:1065D00031FB02460B4630A1D1E900010BF0ACFCC7
:1065E0000BF078FE08EE100A3B49204607F036FF14
:1065F00018EE100A0BF01EFB06460F4647EC106B18
:106600000621204608F098F83449204607F026FF76
:10661000DFED337AC8EE277A17EE900A0BF00AFB0B
:106620000022304B0BF05EFB1DA3D3E900230BF0DF
:1066300083FC0BF04FFE0BF0FDFA41EC100B062132
:10664000204608F079F82849204607F007FF32462F
:106650003B46304639460BF08FF913A3D3E90023AC
:106660000BF06AFC00221F4B0BF03CFB0CA3D3E9A0
:1066700000230BF061FC0BF02DFE0BF0DBFABDEC00
:10668000028B41EC100B20460621BDE8F84008F0D3
:1066900053B800BFAFF30080AF0BA279EB5848406E
:1066A000182D4454FB2109400000000000C04F4059
:1066B0004D6400008D6400002C0B0020B800002009
:1066C00046EF01004EEF010054EF01005EEF0100C4
:1066D00064EF01006AEF010070EF01007AEF010042
:1066E00000007E42008066408DEF0100FFFFFFFF4B
:1066F00008B507EE901A0E4BB8EEE77AD3ED007AA4
:10670000F8EEE77AC7EE277A17EE900A0BF092FAC6
:1067100005A3D3E900230BF0E5FA0BF0DBFD00EE57
:10672000100A08BDAFF30080AF0BA279EB584840C8
:10673000B8000020014B1868704700BFB800002067
:106740000028C4BF014B1860704700BFB80000208C
:10675000FF2910B5A8BFFF2150290C464FF00500B6
:10676000B8BF5024002107F053FB2146062007F054
:106770004FFB00210A2007F04BFB21460B20BDE810
:10678000104007F045BBFF29A8BFFF2110B55029D5
:106790000C46B8BF50242146052007F039FB0021E4
:1067A000062007F035FB21460A2007F031FB0021C7
:1067B0000B20BDE8104007F02BBBFFFF38B5224887
:1067C0000D4681F30804214907F048FE0A222146BC
:1067D0001D4807F0CBFE002D11DC0021052007F03D
:1067E00017FB0021062007F013FB00210A2007F009
:1067F0000FFB00210B20BDE8384007F009BB214604
:10680000052007F005FB0021062007F001FB1049D9
:106810000D4807F023FE0A2221460B4807F0A6FE8A
:1068200000210A2007F0F4FA21460B2007F0F0FAC5
:106830000849054807F012FE21460A220248BDE831
:10684000384007F093BE00BF2C0B002016F001006B
:1068500024F001002AF0010038B522480D4681F3EA
:106860000804214907F0FAFD21460A221D4807F0D5
:106870007DFE002D4FF000014FF005000FDC07F00A
:10688000C7FA0021062007F0C3FA00210A2007F00A
:10689000BFFA00210B20BDE8384007F0B9BA07F075
:1068A000B7FA2146062007F0B3FA10490D4807F061
:1068B000D5FD0A2221460B4807F058FE21460A2042
:1068C00007F0A6FA00210B2007F0A2FA08490548B4
:1068D00007F0C4FD21460A220248BDE8384007F00F
:1068E00045BE00BF2C0B002030F001003EF001003F
:1068F00044F0010008B50021052007F089FA0021C5
:10690000062007F085FA00210A2007F081FA00210D
:106910000B20BDE8084007F07BBAFFFF10B501214E
:106920000446052008F0DAFC0121062008F0D6FC18
:1069300001210A2008F0D2FC01210B2008F0CEFC36
:106940002046084CFFF7D6FF0749204607F0A4FD74
:106950000649204607F0A0FD20460549BDE8104045
:1069600007F09ABD2C0B0020CFEF0100E4EF0100EF
:10697000FCEF010011F1FF0F38B50D461DDBFF29BB
:106980000C46A8BFFF2400290CDD4F29D8BF502496
:106990000021052007F03CFA21460620BDE83840DA
:1069A00007F036BA0BD04F35C4F10001A8BF502113
:1069B000052007F02DFA0021EFE7FF21F8E7052079
:1069C00007F026FA2946E8E711F1FF0F38B50D4622
:1069D0001DDBFF290C46A8BFFF2400290CDD4F2931
:1069E000D8BF502400210A2007F012FA21460B20BC
:1069F000BDE8384007F00CBA0BD04F35C4F10001A8
:106A0000A8BF50210A2007F003FA0021EFE7FF2179
:106A1000F8E70A2007F0FCF92946E8E738B504460C
:106A20001546FFF7A7FF29462046BDE83840FFF787
:106A3000CBBFFFFF38B5344C34490546204607F03C
:106A40002BFD3349204607F027FD0021052007F0E4
:106A5000DFF99621062007F0DBF94FF47A7008F091
:106A6000FFFD2846FFF746FF4FF4967008F0F8FD4B
:106A70002849204607F010FD9621052007F0C8F9A7
:106A80000021062007F0C4F94FF47A7008F0E8FD01
:106A90002846FFF72FFF4FF4967008F0E1FD1E49DE
:106AA000204607F0F9FC00210A2007F0B1F99621F1
:106AB0000B2007F0ADF94FF47A7008F0D1FD2846AD
:106AC000FFF718FF4FF4967008F0CAFD13492046EF
:106AD00007F0E2FC96210A2007F09AF900210B202A
:106AE00007F096F94FF47A7008F0BAFD2846FFF7E0
:106AF00001FF4FF4967008F0B3FD20460849BDE849
:106B0000384007F0C9BC00BF2C0B00209EEF0100ED
:106B1000B3EF0100B8EF0100BDEF0100C2EF0100CB
:106B2000C7EF0100002242608260C2600022016063
:106B3000C0E904227047FFFF10B5044680ED010A4A
:106B4000C0ED020A11EE100A0BF074F80FA3D3E99E
:106B500000230BF0C7F80022094B0BF0EDF90BF006
:106B6000B9FBE0602068FFF7B1FC20612068FFF707
:106B7000B5FC044960610448BDE8104007F08CBCD6
:106B8000008066404DF001002C0B0020182D44546D
:106B9000FB210940FFFFFFFF2DE9F04704462DEDE3
:106BA000068B0068FFF792FC82462068FFF796FC90
:106BB0006169461A21690546AAEB01012068FFF7C1
:106BC00097FD31462068B0EE408AFFF791FD9FEDBA
:106BD000587A38EE009A30EE480A94ED038A80EE37
:106BE00007AA0FF23419D9E90089F6EE007A29EEE6
:106BF000279A7AEE088AF0EE679A18EE900A0BF060
:106C000019F842464B4606460F460BF0FBFAD0B940
:106C10000FF20C19D9E9008918EE900A0BF00AF866
:106C200042464B4606460F460BF0CEFAB8B13EA39D
:106C3000D3E90023304639460AF09EFE0BF04AFBAA
:106C400008EE900AE8E738A3D3E900233046394636
:106C50000AF090FE0BF03EFB08EE900ACDE79FEDA8
:106C6000357AF0EEC97AF4EEC77AF1EE10FA4BDD20
:106C7000AAEE298A0FF2A009D9E9008918EE100AB4
:106C80000AF0D8FF42464B4606460F460BF0BAFACA
:106C9000D0B90FF28C09D9E9008918EE100A0AF070
:106CA000C9FF42464B4606460F460BF08DFAB8B177
:106CB0001DA3D3E90023304639460AF05DFE0BF0F0
:106CC00009FB08EE100AE8E717A3D3E900233046D2
:106CD00039460AF04FFE0BF0FDFA08EE100ACDE738
:106CE000B0EE480A0BF0FEFCD4ED017AE9EE007A32
:106CF000B0EE480AC4ED017A0BF012FFD4ED027A2F
:106D0000E9EE007AC4ED027AC4ED038ABDEC068B8D
:106D1000C4E904A5BDE8F087182D4454FB210940BF
:106D2000182D4454FB2109C0182D4454FB2119404F
:106D300000007E426F12833A08B510EE100A0AF086
:106D400079FF0022084B0AF0CDFF05A3D3E9002309
:106D50000BF0F2F80BF0BEFA00EE100A08BD00BF0F
:106D6000182D4454FB2109400080664010B50023D3
:106D700043608360C36004460068FFF7B7FB0023ED
:106D8000C4E9043310BDFFFF38B5214C2149054645
:106D9000204607F063FB68680AF04CFF41EC100BDB
:106DA0000121204607F0C6FC1B49204607F056FB90
:106DB000A8680AF03FFF41EC100B0121204607F0C4
:106DC000B9FC1649204607F049FBE8680AF032FF93
:106DD0000022134B0AF086FF0BA3D3E900230BF02C
:106DE000ABF80BF077FA0AF025FF41EC100B00210D
:106DF000204607F09FFC20460A49BDE8384007F0CE
:106E00004BBB00BFAFF30080182D4454FB21094059
:106E10002C0B002025730100576B01004AF0010084
:106E2000008066403273010008B50368002B02DA67
:106E300009480AF098FD8B4208D949008B4205D2D7
:106E40000029B6BF6FF00043016003600068BDE831
:106E5000084001300AF058BD66F1010010B5044643
:106E6000406828B163781BB940F2AC410AF076FD66
:106E7000204610BD08B4F3B507AB044600F10C057D
:106E800053F8042B0193802128460DF07BFED4F8A3
:106E90009000A8B194F89430012B11D90F4907F054
:106EA000E6FAD4F89060336828465F680DF070FD0C
:106EB000294602463046B847D4F8900007F0E6FA73
:106EC000284664680DF064FD29460246204606F017
:106ED00031FC02B0BDE8F04001B07047B6F00100EF
:106EE000034653F8080B984201D00AF02DBD7047B5
:106EF000F8B50646456808460F460DF049FDA8421C
:106F0000024628BF2A46044622B1394630680CF0B2
:106F100037FF00B9281BF8BD012A30B404D191F91C
:106F20000030037030BC7047002AFBD030BC0CF03E
:106F300036BFFFFF00F1080373B5044603600D463A
:106F4000D1B108460DF024FD0F280646019006D960
:106F5000002101A8FFF768FF019B2060A360324673
:106F600029462068FFF7D8FF019B22686360002153
:106F70002046D15402B070BD01480AF0F1FC00BFB8
:106F80007EF101002DE9F347DDF8288016464268BE
:106F90009A46A8EB0603571A13440268019300F1BE
:106FA00008039A420D46044614BF81680F2101A8C8
:106FB000FFF73AFFBF1B81461DB12A462168FFF744
:106FC000ABFFBAF1000F08D0B8F1000F05D0424670
:106FD000514609EB0500FFF79FFF47B121682E449A
:106FE00005EB08003A4631444844FFF795FF204638
:106FF000FFF776FF019BC4F80090A36002B0BDE8E4
:10700000F087F7B50268466800F108039A4218BF96
:10701000836806F1010508BF0F239D4204460F4611
:1070200006D90123009300231A463146FFF7AAFF31
:1070300023689F552368656000225A5503B0F0BD50
:10704000012A30B404D191F90030037030BC70478C
:10705000002AFBD030BC0CF0ADBEFFFF2DE9F74F8E
:107060008146144640680C9E02F10042013A121A11
:107070009642984602D937480AF075FC4A46A6EB74
:10708000040B52F8083B934218BFD9F808200BEBC9
:10709000000A08BF0F22524552D35F189845A0EB53
:1070A0000101A1EB040522D3034498451FD876BB08
:1070B00095B1B44210D02A463919B819FFF7C0FF6C
:1070C000B44209D23C4408EB06039C4227D3324623
:1070D00041463846FFF7B4FFD9F80030C9F804A09C
:1070E0000022484603F80A2003B0BDE8F08F35B10E
:1070F000B44204D02A463919B819FFF7A1FF002E6F
:10710000EAD0324641463846FFF706FFE4E7B4428C
:107110001DD3324641463846FFF792FFC8E7444543
:1071200003D8324608EB0B01EDE7A4EB0804224636
:1071300041463846FFF784FF321BB9193819E3E797
:107140000096434622464846FFF71CFFC4E7002D41
:10715000B8D0B0E74DF1010037B5044608460D46FA
:107160000DF016FC2B460090626800212046FFF7C8
:1071700075FF03B030BDFFFF2DE9F04F8FB00AABB4
:1071800003910646089398490398002309938DF8C4
:1071900028309246FFF7ACFE031C0490D6F890000E
:1071A00018BF0123069328B196F8943013B18F4984
:1071B00007F05DF908F098FA4FF00008CDE9018872
:1071C0000123DFF850B2059047469946444607939D
:1071D00008F08AFA059BB268C01A904200F21C813E
:1071E000079B5BB17068026812699047079B002893
:1071F000EDD0706803685B69984745B2D6F8900097
:1072000038B196F8943023B10A2D24D1784907F08B
:107210002EF9D6F8900060B196F89430022B08D978
:10722000744907F024F90A222146D6F8900007F0A5
:107230009DF9631E072B29D8DFE813F03A005C00A4
:1072400081008D009000BA002D01A500092C00F0EE
:10725000E5800123BBE70D2D01D16749D7E7202D3C
:1072600001D16649D3E71F2D0CDC654907F0FFF813
:1072700029460A22D6F8900007F09BF96149D6F812
:107280009000C4E7294607F0F6F8C2E72B2D05D198
:10729000294608A8FFF7B5FE0124DAE71BF90730F5
:1072A000AB4240F09F80DDF8188001370824D0E71A
:1072B0003A2D294608A801D03D2D3DD1FFF7A1FE6A
:1072C000049B8BB1039B099A5B689A4206D15AB121
:1072D000039B089819680CF053FD28B14A4908A887
:1072E000FFF73AFF4FF0010847495046FFF734FFD8
:1072F0000224AEE77C2D11D1DAF800000CF0A1FCDD
:107300000023CAF80430DAF8003002904FF000028F
:107310001A7000280CBF052403249AE70D2D00F0F5
:10732000B1800A2D00F0B08096F88C3013B1202D7A
:1073300000F0AC8029465046FFF763FE89E72946F6
:107340005046FFF75EFE019B029A01330193934280
:1073500008BF05247DE70A2D08BF05242B495046A8
:10736000FFF7C6FD60B12A495046FFF7C1FD00286E
:1073700004BF4FF0010909244F2D2AD1012795E7B9
:1073800081460924F8E71BF907207B1C5846079320
:10739000AA4218BF07240DF0FBFA079B98426FD151
:1073A00007464FF00009B8F1000F19D1092435E064
:1073B0001BF907207B1C58460793AA4218BF0724D5
:1073C0000DF0E6FA079B98425AD107464FF00109A3
:1073D000E9E7B8F1000F3FF439AF092C7FF439AF7A
:1073E0004FF00008002434E707F1010014F1010018
:1073F0001AF1010035F101001FF1010024F1010033
:1074000029F101001DF10100F6F10100BC6D010040
:1074100087F001002BF101004FF00309D6F890002E
:10742000B8B196F89430022B13D91E4907F01FF813
:107430000A222146D6F8900007F096F81A49D6F8A5
:10744000900007F014F80A224946D6F8900007F099
:107450008DF8D6F89000012386F88C3048B196F864
:10746000943033B1114907F002F8D6F8900007F0D4
:107470000DF808A8FFF734FD48460FB0BDE8F08FBF
:107480001F46E6E60424E4E60524E2E6B8F1000F30
:107490007FF4DFAE9BE6002398464FF002091C46BE
:1074A00095E600BF30F101003DF1010043F101001C
:1074B00030B50446406803688DB05B68984706AAFB
:1074C0001D496846FFF736FD08AB069306AA002360
:1074D0006946204607938DF82030FFF74DFE05469C
:1074E000D4F8900088B194F89430012B0DD9134949
:1074F00006F0BDFF0699D4F8900006F0D7FF7DB9DD
:107500000F49D4F8900006F0D1FF06A8FFF7E8FC79
:107510006846FFF7E5FCB5FA85F040090DB030BDCF
:10752000012DD4F8900001D10649ECE7032D0CBFE2
:1075300005490649E7E700BF07F1010054F00100E3
:107540006EF001007CF001008DF00100A0F0010060
:1075500008B42DE9F3431646044609AB306853F8E6
:10756000042B0193884604F10C0500217160017021
:10757000802128460DF006FBD4F89000B0B106F04B
:1075800085FF2449D4F8900006F071FFD4F890707C
:107590003B682846D3F804900DF0FAF929460246D4
:1075A0003846C847D4F8900006F070FF2846676850
:1075B0000DF0EEF929460246384606F0BBF8324691
:1075C00041462046FFF7D8FD0546D4F8900068B143
:1075D000114906F04CFF3168D4F8900006F066FFC0
:1075E00065B90E49D4F8900006F060FFB5FA85F051
:1075F000400902B0BDE8F04301B07047012DD4F856
:10760000900001D10649EFE7032D0CBF054906495B
:10761000EAE700BFF1F00100FBF001006EF00100AD
:107620007CF001008DF00100A0F001002DE9F04395
:107630000446406891B01646002834D02378002BC9
:1076400031D10368194DDB69DFF86C90DFF86C808D
:10765000174F98470AAA174904A8FFF76BFC606800
:107660000368DB6898474FF4FA72AA602378A3B9DD
:10767000002E12DD03AA49460AA8FFF75BFC3B4631
:1076800004AA0AA9CDF800800848FFF761FF20701E
:107690000AA8FFF725FC013EE8E742F2107304A8B0
:1076A000AB60FFF71DFC11B0BDE8F083E0060020E1
:1076B00067FF0100F6F10100CEF00100DEF00100ED
:1076C000074B084858600022012142F210701A70DE
:1076D0005970986083F88C1083F89420704700BF2D
:1076E000E0060020841400200148FFF7B7BB00BF6C
:1076F000E006002008B50368002B02DA09480AF00A
:1077000032F98B4208D949008B4205D20029B6BF15
:107710006FF00043016003600068BDE8084001307D
:107720000AF0F2B866F1010073B542F2107303601B
:1077300000F5F8730025C0F8E831012600F5027362
:10774000044680F8E451C0F8EC5180F8F051C0F8DC
:107750000032C0F8045280F8085204230096A82290
:10776000C02100F5067006F00BFD33460096A822F6
:10777000C02104F50C7006F003FDFF2300951A46A6
:10778000194604F5127006F0FBFC204602B070BDED
:1077900073B505460E4619B912B10D480AF0E0F866
:1077A000941B0F2C019406D9002101A8FFF7A2FF1A
:1077B000019B2860AB60224631462868FFF7ACFB8E
:1077C000019B2A686B600021D15402B070BD00BFDC
:1077D0007EF1010038B500F10803044603600D4650
:1077E00049B108460DF0D4F82A1820462946FFF77B
:1077F000CFFF204638BD4FF0FF32F6E770B50322C9
:107800008EB005464FF4E1312848FFF70FFF002402
:10781000274902A8FFF7DEFF2346224621460094AF
:10782000284606F0ADFC234908A8FFF7D3FF224BFA
:10783000009302AA214B1D4808A9FFF789FE0646BE
:1078400008A8FFF74DFBD6B102980CF0FAF9012811
:107850001BD11B4908A8FFF7BDFF1A4B00930194E9
:10786000194B124802AA08A9FFF772FE044608A89D
:10787000FFF736FB1CB10299284606F0A3FD02A8CB
:10788000FFF72EFB28460EB070BD02980CF0D9F918
:107890000228F4D10D4908A8FFF79CFF0C4B0348C0
:1078A00002AA08A9FFF754FEE0E700BFE0060020A7
:1078B000F6F10100C5F10100D0F1010067FF010000
:1078C000C3F20100CBF20100F7F10100AAF20100BE
:1078D000B5F2010010B5104C10498CB06846FFF7A6
:1078E00079FF032220464FF4E131FFF79FFE0C4958
:1078F00006A8FFF76FFF0B4B6A4606A92046FFF765
:1079000027FE044606A8FFF7EBFA6846FFF7E8FAF9
:1079100020460CB010BD00BFE0060020F6F10100CB
:10792000A8F10100B5F1010070B590B00C4604A8B3
:107930001E491E461546FFF74DFF03224FF4E13165
:107940001B48FFF773FE1B490AA8FFF743FF0223FA
:107950000193194B009304AA184B15480AA9FFF785
:10796000F7FD0AA8FFF7BCFA15490AA8FFF732FF8E
:10797000144B01940093CDE90256134B0C4804AA12
:107980000AA9FFF7E5FD04460AA8FFF7A9FA24B102
:1079900004980CF056F9012806D0092404A8FFF732
:1079A0009FFA204610B070BD0724F7E7F6F10100FA
:1079B000E0060020C5F10100FEF10100F7F1010031
:1079C0007FF201009AF201008DF201000123FFF71E
:1079D000ABBFFFFF0148FFF7A7BE00BF780700203D
:1079E00010B5054C04F50070FFF77AFA04F5F47051
:1079F000FFF776FA10BD00BF78070020002070471F
:107A00000069013018BF0120704708B503685B6B3F
:107A1000984780F00100C0B208BD13B502AB026800
:107A200003F8011D546819460122A04702B010BD99
:107A300007B5036801225B6A0DF107019847012829
:107A40000CBF9DF807004FF0FF3003B05DF804FB5A
:107A500000690B69C31A58425841704770470020AB
:107A6000704740F20C41C06809F078BF10B5102192
:107A7000044609F073FF204610BD08B5FFF7F6FF76
:107A800008BD7FB503680446164601A81D6A06F0C6
:107A9000D9FB324601992046A847044601A806F0C2
:107AA00083FE204604B070BD036810B504469B6891
:107AB0009847A368013BA3602BB923682046DB6885
:107AC000BDE81040184710BD00F1080370B504462A
:107AD00003600E46B1B108460CF05AFF0F28054668
:107AE00004D9013009F010FFA5602060012D206845
:107AF0000BD196F9003003702368656000225A5557
:107B0000204670BD044809F02BFF002DF4D02A4612
:107B100031460CF044F9EFE77EF10100036813B938
:107B200062B6BFF36F8F704713B5EFF31083009306
:107B30000123019372B6019B5A1E019233B104686E
:107B40006846FFF7EBFF204602B010BD6846FFF71E
:107B5000E5FFF8E713B50446EFF310830093012324
:107B6000019372B6019B5A1E0192684633B1FFF72A
:107B7000D5FF601CC0F3090002B010BDFFF7CEFFB7
:107B8000FAE7FFFF0023C0E905334FF47A72C0E93A
:107B90000132C3610B6903618B698361CB69044A5C
:107BA00002601BB15A6801325A60C361704700BF5E
:107BB00070F4010010B50446006828B14368013B29
:107BC00043600BB9FFF770FF204610BD10B5044BA2
:107BD000044640F81C3BFFF7EDFF204610BD00BFF8
:107BE00070F4010030B50369002B8FB0044607DB49
:107BF0000368DB6A984718B9236820469B6A984750
:107C00002369013321D1124902A8FFF75DFF032246
:107C10004FF4E1310F48FFF709FD0F4908A8FFF7BE
:107C200053FF0E4B009302AA0D4B0A4808A9FFF719
:107C30008FFC054608A8FFF753F91DB102980CF018
:107C400000F8206102A8FFF74BF90FB030BD00BF6C
:107C5000F6F10100E006002049F4010057F40100AC
:107C600067FF010070B5044692B00D461646FFF757
:107C7000B9FF2369002B25DB1E4906A8FFF724FF67
:107C800003224FF4E1311C48FFF7D0FC6369DBB1FC
:107C90001A490CA8FFF718FF63690295CDE9036341
:107CA00023690193164B009306AA164B12480CA9A0
:107CB000FFF74EFC04460CA8FFF712F906A8A4B97A
:107CC000FFF70EF9002013E00F490CA8FFF7FCFEA8
:107CD000CDE90256236901930C4B009306AA0C4B85
:107CE00005480CA9FFF734FCE4E7FFF7F9F8012099
:107CF00012B070BDF6F10100E006002088F301002B
:107D0000A8F3010098F30100BAF30100DBF30100CE
:107D1000CEF3010070B50369002B90B005460E4606
:107D200014462ADB164904A8FFF7CEFE03224FF4BF
:107D3000E1311448FFF77AFC13490AA8FFF7C4FEA3
:107D400002942B690193114B009304AA104B0D4828
:107D50000AA9FFF78FF80AA8FFF7C2F822463146B2
:107D60000848FFF7A5FB054604A825B1FFF7B8F8BA
:107D7000204610B070BDFFF7B3F80024F8E700BF4D
:107D8000F6F10100E006002062F3010079F3010042
:107D90006FF3010030B50369002B8FB0054635DB6A
:107DA00084695CB104F58160FFF7BEFE002808DD40
:107DB000A86900F58160FFF7B7FE044620460FB0C2
:107DC00030BD154902A8FFF77FFE03224FF4E131D1
:107DD0001248FFF72BFC124908A8FFF775FE2B6924
:107DE0000193104B009302AA0F4B0C4808A9FFF710
:107DF000AFFB044608A8FFF773F84CB102980BF0EC
:107E000020FF041E04DA02A8FFF76AF80024D5E771
:107E100002A8FFF765F8D1E7F6F10100E0060020BF
:107E200009F4010015F40100F7F101002DE9F04F0C
:107E30000369002B93B00746C0F287808369002B4B
:107E400000F08380424906A8FFF73EFEBA69EFF3CF
:107E500010830C9301230D9372B60D9B591E0D9147
:107E60001BB1D2F80854C5F580653A4E0CA8FFF74F
:107E700055FE0024032230464FF4E131FFF7D6FBD4
:107E8000013D86F88C4034490CA8FFF71DFE029591
:107E90003B690193314B00933046314B06AA0CA944
:107EA000FFF756FB06460CA8FFF71AF8002E41D044
:107EB000079B002B47D04FF00109CA46AC4239D28C
:107EC000079B9C4236D2069BBE6913F804B0EFF3C1
:107ED0001083CDE9043972B6059B5A1E059223B36F
:107EE000EFF31083CDE90C3A72B60D9B5A1E0D923A
:107EF0003BB1D6F80834A3F58063D3F1000848EB12
:107F000003080CA8FFF70AFEB8F1000FE4D1D6F879
:107F1000000406F800B0FFF71DFED6F80834C6F8D6
:107F200000040133C6F80834D6E704A8FFF7F6FDCD
:107F30000134C3E74FF0FF3406A8FEF7D1FF204617
:107F400013B0BDE8F08F1C46F6E74FF0FF34F6E7BC
:107F5000F6F10100E00600202EF301003EF30100DF
:107F60006FF3010038B5044680690D4650B100F545
:107F70008160FFF7D9FDA84204D22046BDE8384011
:107F8000FFF754BF38BD2DE9F74F07468A46114623
:107F90001646FFF7E7FF3B69002B33DBBC6994B360
:107FA0004FF0010B56440024D946B2452BD0BBF10B
:107FB000000F28D0BD69D5F808344BB995F800807A
:107FC0009B460AF8018BBBF1000FEED00134ECE7C1
:107FD000EFF31083CDE9003972B6019B5A1E01926E
:107FE00063B1D5F8040415F80080FFF7B3FDD5F8A8
:107FF0000834C5F80404013BC5F808346846FFF7A7
:108000008DFDDEE70024204603B0BDE8F08F10B5FB
:1080100004460121FFF7A6FF2369002B0ADBA369B1
:1080200043B1D3F808241AB1D3F80424985C10BDE6
:10803000FF20FCE74FF0FF30F9E7FFFF10B50369C1
:10804000002B8EB004461DDB0F4902A8FFF73CFD54
:1080500003224FF4E1310D48FFF7E8FA0C4908A874
:10806000FFF732FD236901930A4B009302AA0A4BE2
:10807000064808A9FFF76CFA08A8FEF731FF02A826
:10808000FEF72EFF0EB010BDF6F10100E006002055
:1080900050F3010058F30100F7F1010010B5036936
:1080A000002B8EB0044620DB154902A8FFF70CFD1B
:1080B00003224FF4E1311348FFF7B8FA124908A838
:1080C000FFF702FD23690193104B009302AA104BA6
:1080D0000C4808A9FFF73CFA08A8FEF701FF4FF08B
:1080E000FF33236102A8FEF7FBFEA3690022C3F859
:1080F0000024C3F80424C3F808240EB010BD00BF48
:10810000F6F10100E006002010F301001EF301006B
:10811000F7F1010010B503688EB01B69044698475B
:10812000002829DC2369002B28DB154902A8FFF76A
:10813000CBFC03224FF4E1311248FFF777FA1249E2
:1081400008A8FFF7C1FC23690193104B009302AA12
:108150000F4B0C4808A9FFF7FBF9044608A8FEF7E7
:10816000BFFE1CB102980BF06CFDC4B202A8FEF772
:10817000B7FE20460EB010BD0124FAE70024F8E750
:10818000F6F10100E006002023F4010035F40100BF
:10819000F7F1010030B50C4695B0054602A805F090
:1081A000E7FF2369002B34DB1E4908A8FFF78CFC8E
:1081B00003224FF4E1311C48FFF738FA1B490EA89F
:1081C000FFF782FC23690193194B009308AA194B0E
:1081D00015480EA9FFF7BCF904460EA8FEF780FE6D
:1081E000A4B108992C4602A806F0ECF8124B44F80A
:1081F000043B03AB0FCB84E80F009DF81C302B75BC
:1082000008A8FEF76DFE284615B030BD08A8FEF799
:1082100067FE002300931A461946284605F0B0FF72
:10822000F1E700BFF6F10100E0060020F1F30100E4
:10823000FCF30100F7F1010050F8010010B50369EB
:10824000002B8EB0044626DB144902A8FFF73CFC45
:1082500003224FF4E1311248FFF7E8F9114908A869
:10826000FFF732FC236901930F4B009302AA0F4BD7
:108270000B4808A9FFF76CF9044608A8FEF730FE82
:108280001CB102980BF0DDFC84B202A8FEF728FEB8
:1082900020460EB010BD0024FAE700BFF6F1010041
:1082A000E0060020F4F2010001F30100F7F1010003
:1082B00013B500230446D1E90002C1E90033236865
:1082C000206002A80093636840F8043D6260FFF7F5
:1082D00071FC204602B010BD73B54FF47A730025CF
:1082E000C0E90153174B03604FF0FF33C0E9043579
:1082F0000446C0E9065540F20C4009F005FB4FF476
:108300008062064629460BF06EFD1020C6F8005428
:10831000C6F80454C6F80854CDE9006509F0F4FA2B
:108320000123C0E90133084B0360C6600190694630
:1083300004F11800FFF7BCFF01A8FFF73BFC204643
:1083400002B070BD70F40100E0F2010073B54FF4AB
:108350007A730025C0E90153164B03600446C0E957
:108360000415C0E9065540F20C4009F0CDFA4FF46F
:108370008062064629460BF036FD1020C6F80054F0
:10838000C6F80454C6F80854CDE9006509F0BCFAF3
:108390000123C0E90133084B0360C66001906946C0
:1083A00004F11800FFF784FF01A8FFF703FC204643
:1083B00002B070BD70F40100E0F20100704708B532
:1083C00003685B69984780F00100C0B208BD13B52F
:1083D00002AB026803F8011D546819460122A04748
:1083E00002B010BD80688B68C31A5842584170476C
:1083F00010B500234360064B03604FF0FF33044683
:10840000C0E902311030FFF767FF204610BD00BF02
:1084100020F501002DE9F0418B68013392B0074649
:108420000C4663D00AAA334904A8FEF783FD032251
:108430004FF4E1313048FFF7F9F803AA2F490AA8B1
:10844000FEF778FDA36801932D4B009304AA2D4BF2
:1084500029480AA9FFF77CF805460AA8FEF740FD5F
:10846000002D40D004980BF0ECFB236A83420146B8
:1084700004F110080AD141463846FFF783FB04A8EF
:10848000FEF72EFD384612B0BDE8F0810AA8FFF7CE
:108490005DFF0B9B63610C9BA3610D9BE361119ED0
:1084A0000E9BE56A23620F9B6362AE42109BA36240
:1084B00015D016B17368013373607DB16B68013BF1
:1084C0006B605BB92B6828469B689847AB68013B9B
:1084D000AB601BB92B682846DB689847E6620AA8A0
:1084E000FFF774FBC7E704A8FEF7FAFC3846FFF76E
:1084F000F3FEC7E7F6F10100E0060020F0F401000A
:1085000002F50100F7F1010030B58368013391B045
:1085100004460D4624D10AAA124904A8FEF70AFD12
:1085200003224FF4E1311048FFF780F803AA0F4906
:108530000AA8FEF7FFFC0E4B0195009304AA0D4B11
:1085400009480AA9FFF704F805460AA8FEF7C8FC7F
:108550001DB104980BF075FBA06004A8FEF7C0FCE9
:1085600011B030BDF6F10100E0060020B4F40100C6
:10857000C2F40100F7F10100C168FFF7C5BFFFFFBA
:1085800070B58368002B92B005460E4614462CDB6E
:108590000CAA174906A8FEF7CDFC03224FF4E131DF
:1085A0001448FFF743F805AA13490CA8FEF7C2FCCC
:1085B0000294AB680193114B009306AA104B0D482F
:1085C0000CA9FEF757FC0CA8FEF78AFC22463146A0
:1085D0000848FEF76DFF054606A825B1FEF780FCAA
:1085E000204612B070BDFEF77BFC0024F8E700BF08
:1085F000F6F10100E0060020D2F40100E0F40100F1
:108600006FF3010008B506F085FF002008BD2720A4
:108610007047704737B5FFF7FCFF01210D2006F0CA
:108620005DFE00210D2006F071FE68460722032141
:1086300009F0FAF8BDF800301C4CC3F3841301258F
:10864000684607220521E55409F0EEF8BDF8003030
:10865000C3F38413684607220621E55409F0E4F8C1
:10866000BDF80030C3F38413684607220921E5549E
:1086700009F0DAF8BDF80030C3F384136846072226
:108680000A21E55409F0D0F8BDF80030C3F3841393
:1086900007220B216846E55409F0C6F8BDF8003002
:1086A000C3F38413E55403B030BD00BFB60A002005
:1086B00030B5836A85B004468C4601ADABB193E812
:1086C000070085E807006268117883F804C0E26A51
:1086D0009A6019601846626A9047A36A1BB195E8D0
:1086E000070083E8070005B030BD2B46EBE700BF6D
:1086F00010B4EFF30383103B5BB203F1C001204AD7
:10870000204C52F821006FF3104042F8210054F839
:108710002330D3E906218A421BD0186940B393F86D
:1087200020400F2C0BD99968496840F82210D9696C
:1087300001328A429A610CD05DF8044B7047072CD5
:1087400019D8996809798154D96901328A429A61A4
:10875000F2D15B680C4993F903305DF8044B58097A
:10876000012203F01F0302FA03F341F8203070479F
:1087700098684068DCE79C68A48820F81240D7E736
:1087800000600040240A002000E100E0F0B5EFF3B3
:108790000383103B5BB203F1C0022F492F4C51F809
:1087A00022006FF3104041F8220054F8233058683B
:1087B000026A002A30D092F801C0DC695A69BCF123
:1087C000010F17D094420FD0D96841B393F820001D
:1087D0000F280AD80728986895BF895C31F81210CD
:1087E0000171818001325A61F0BD986851F8221000
:1087F0004160F7E704F1FF3E724513D0016900299B
:10880000E0D090F9031016484D0901F01F010CFA51
:1088100001F140F82510D5E75A69DC69D2E798687C
:108820004160DFE790F903E00EF1C0064FEA5E1009
:10883000800051F8267000F1604000F561400EF0B4
:108840001F0E0CFA0EF56FF3104741F82670C0F8B2
:1088500080510560B6E700BF00600040240A002098
:1088600000E100E010B4EFF30383103B5BB2324A47
:10887000324C03F1C00152F821006FF3104042F86E
:10888000210054F823008268D278920706D5426806
:10889000527A012A02D05DF8044B70475909284CDE
:1088A0000122203103F01F0302FA03F344F82130C0
:1088B000BFF34F8FBFF36F8F436893F90230002BE4
:1088C0002FDB5909203103F01F0302FA03F344F8A8
:1088D0002130BFF34F8FBFF36F8FD0E9011423789E
:1088E00091F902106FF386130029237014DB01F154
:1088F000C00C114C4B099B0001F01F018A4003F191
:10890000604354F82C1003F561436FF3104144F8B1
:108910002C10C3F880211A605DF8044B0121FFF789
:10892000C7BE82685DF8044B13786FF3861313702B
:108930000121FFF7BDBE00BF00600040240A0020F7
:1089400000E100E070B5EFF30384103C314B64B2FA
:1089500053F82460736893F90230002B42DB5A0904
:108960002D492032012003F01F0300FA03F341F8E0
:108970002230BFF34F8FBFF36F8FD6E9012392F9F7
:1089800002101A7800296FF386121A7015DB01F1B4
:10899000C00C224D4A09920001F01F0100FA01F1BA
:1089A00002F1604255F82C0002F561426FF310406D
:1089B00045F82C00C2F880111160DA780021D5B298
:1089C0001207D97021D4EB0712D405F01405142D29
:1089D00016D0124BC03453F824206FF3104243F8E2
:1089E000242070BDB3681A786FF386121A70E4E71A
:1089F0000421304605F01405FFF75AFE142DE8D186
:108A000008213046FFF754FEE3E705213046FFF723
:108A10004FFED8E7240A002000E100E0006000409B
:108A2000036A70B50446987800F07B0098700D4694
:108A3000217841B32261E269E5601069002841D0E4
:108A4000226982B1A378816800688E68E16803F0CA
:108A50000303013B22FA03F3002222619BB2B047D9
:108A600080B9236A21789A7842F080029A7039BBE3
:108A700094F802C00CF0030CBCF1020F1AD02A7853
:108A8000DA70002070BD94F802C0E0690CF0030EAB
:108A90000069A2EB0E02226105EB0E02E2600028E3
:108AA000CED19A780CF0030C42F08002BCF1020F98
:108AB0009A70E4D12A8842F47E420020DA8170BDA7
:108AC000002070BD9A7842F080029A7070BD00BF9D
:108AD000036A91F801C09A7800B502F07B0E02F0AB
:108AE0000B029A700022C2608878587010461A787B
:108AF0006CF301021A70CA789A7493F807C00A7866
:108B00000CF0A30102F05C020A43DA7183F802E080
:108B10005DF804FB10B5D0E90721002343608B709A
:108B200092F905202F49044650090123203002F014
:108B30001F0203FA02F241F82020BFF34F8FBFF368
:108B40006F8FE26992F90B205009203002F01F026A
:108B500003FA02F241F82020BFF34F8FBFF36F8F6B
:108B6000E26992F907205009203002F01F0203FA4F
:108B700002F241F82020BFF34F8FBFF36F8FE269FD
:108B800092F90920500902F01F02934000F12002DF
:108B900041F82230BFF34F8FBFF36F8FE369DA687C
:108BA00022B1936810681B6A9847E3691B691BB17F
:108BB0009A681868136A9847EFF31081012383F3CA
:108BC0001088E369084A1C78D2F800014FF000438E
:108BD000E3400343C2F80031D2F8003181F310883A
:108BE000002010BD00E100E0006F0440F0B5846A91
:108BF00085B005460F4694466E46B4B194E80F0022
:108C000086E80F00EB691B7884F804C02360EB6AE8
:108C10002046C4E902736B6A9847AC6A1CB196E8B7
:108C20000F0084E80F0005B0F0BD3446EAE700BF4E
:108C30008C46516830B4029C0D6880B91C609CF869
:108C4000010038B9E8784FF0010C0B346CF30510D3
:108C5000E8701C60936810681B6830BC184704F10A
:108C60000C001860EBE700BF2DE9F0470D460978CE
:108C70000323CB4013F0010301F1007218BF10234E
:108C8000037002F5605283785201012161F3010300
:108C90000262A9696A6942620022C0E90A21C561CB
:108CA00083706B7882B0044623B98378022262F322
:108CB0000103837095F90B00594B95F80AC04209DE
:108CC000203200F01F06012101FA06F643F8226067
:108CD000BFF34F8FBFF36F8F524A534E00F1C0075F
:108CE0004FEA0C1C52F827E06FF3104E42F827E0D1
:108CF0001F185FFA8CFC87F800C346F8204095F9EE
:108D0000050095F804C04709203700F01F0E01FA4E
:108D10000EFE43F827E0BFF34F8FBFF36F8F00F1D4
:108D2000C00703EB000852F827E04FEA0C1C5FFA7B
:108D30008CFC6FF3104E42F827E088F800C346F829
:108D4000204095F9070095F806C04709203700F044
:108D50001F0E01FA0EFE43F827E0BFF34F8FBFF35B
:108D60006F8F00F1C00703EB000852F827E04FEACD
:108D70000C1C5FFA8CFC6FF3104E42F827E088F869
:108D800000C346F8204095F9090095F808C0470946
:108D9000203700F01F0E01FA0EF143F82710BFF341
:108DA0004F8FBFF36F8F00F1C0074FEA0C1152F8DD
:108DB00027C003446FF3104C42F827C0C9B283F8B0
:108DC0000013EA6846F8204072B153681B684FF4FC
:108DD000002143F8041B216A05310091E1692078E4
:108DE000FFF726FF0646B0B92A69FAB153681B6837
:108DF0004FF0006143F8081B216A03310091E169DB
:108E00002078FFF715FF064680B1EB681BB19A6822
:108E10001868136A9847304602B0BDE8F08700BF73
:108E200000E100E000600040240A0020EFF3108021
:108E3000012383F31088984B2E78D3F800214FF04C
:108E40000041F14022EA0102C3F80021D3F80031C9
:108E500080F31088236AE06900229A701A715A72AE
:108E60009A72DA725A83297840F20722CA40D207EE
:108E700044BF4022DA7406221A7722787AB1C16898
:108E8000013A002900F0FE800126120391B231431D
:108E900041F006029A829A8A92B29142FBD1EA7814
:108EA000A978D20042EA01126978032900F0D7803C
:108EB000002914BFF221E221ED69D2B21A70997132
:108EC0002A7B520002F002025A736A78A9780026BF
:108ED0001E7295F800C0D201490101F02001D2B202
:108EE0000A43ACF10201012940F2BD80D2B2DA712D
:108EF0006A68917859701978567866F3010119708B
:108F0000D17899741278D97902F05C0201F0A3014A
:108F10000A43DA710027C4E90377C4E9057790F9B9
:108F200005105E4E01F1C00E4A0956F82E809200DF
:108F300067F3104802F1604246F82E8002F5614264
:108F40004FF0010E01F01F010EFA01F1C2F880117D
:108F5000116090F90B1001F1C0094A0956F829A0D7
:108F6000920002F1604202F5614267F3104A01F09B
:108F70001F0146F829A00EFA01F1C2F88011116014
:108F800090F9071001F1C0094A0956F829A092008A
:108F900002F1604202F5614201F01F0167F3104ADD
:108FA00046F829A00EFA01F1C2F88011116090F97B
:108FB000091001F1C0004A0956F82090920002F110
:108FC000604267F3104946F8209002F561420CF0C8
:108FD000030C01F01F010EFA01F14CF0700CC2F805
:108FE0008011116083F802C06B8923814FF6FF78EE
:108FF00043452DD0EFF310818EF31088284A136873
:109000001BB92848C3704023C37013680133136031
:1090100081F31088218924480B0A1B0153FA81F13E
:1090200050F8213023F0011323F4404343F00403AC
:1090300040F82130EFF31081012383F31088136887
:1090400013B11368013B13601368B3B181F3108847
:10905000164B63600026304602B0BDE8F08742F050
:109060004002F22128E7BCF1020F08BF42F01002D3
:10907000FF21D2B25970DA714CE70A4A8020D370CE
:10908000D070E3E7C169097A1140090201F4706107
:1090900041F00106F9E600BF006F044000600040A7
:1090A000200A0020000D04400008044055494353A5
:1090B0002DE9F04F1E46FF23B37033786FF3820320
:1090C0008BB033708023F370554B0992554A1B6A5D
:1090D00012680191C3F302618A40C3F30233DA409C
:1090E000514B07900021100A0692089105900291B9
:1090F0000093A2FB03BA099B009A93426EDA9DF893
:10910000203003930027494B039ADD5DC5F34003EC
:10911000C5F3800504932B43934256D1444B33F857
:109120001780079B03FB08F8069BB3FBF8F2541E5D
:10913000FF2C4AD802FB08F91DE0059BB9FBF3F3AD
:109140007F2B03FB00F040D90028B8BFFF3000128E
:10915000A0F5C330A0380028009AB8BF4042824230
:1091600040DC029BF370337843F00403A9EB080959
:10917000337054B3013C4A464FEAE97358465146AE
:1091800009F0F8F8019A002AD7D1A0F5C333A03B23
:10919000002B009AB8BF5B429A4216DD0093234B26
:1091A000B470DA5D3378C2F3000161F38613049979
:1091B00061F3041365F3C30333707378C2F3C10220
:1091C00062F301037370019B029301370D2F9AD153
:1091D000089BF3B1009B099A93421DDC00200BB061
:1091E000BDE8F08F0293114B049AD95D337800905B
:1091F000C1F3000060F3861362F3041365F3C30345
:1092000033707378B470C1F3C10161F301037370FB
:10921000A7E7012308936EE703200BB0BDE8F08FAA
:1092200000E00140B00A0020A086010074F70100B0
:1092300084F70100F0B5EFF30383103B5BB203F159
:10924000C001344A344C52F821006FF3104042F808
:10925000210054F82300C3691B6913B1036913B1DA
:10926000F0BD036983B9D0E90824937803F07F0344
:10927000002143F004039370C160002CF0D0BDE8DE
:10928000F0408022FFF7B2BC05785DB3066AF18A30
:10929000C1F30421A9421ED28478C2681F4F04F092
:1092A000030E74460BE092F800C086F80FC001313F
:1092B0001B1B2244A942C0E903230CD25BB1BEF1BF
:1092C000020FF0D1B2F800C04CEA070C1FFA8CFC78
:1092D000A6F80EC0EBE732796FF3C7123271002B9C
:1092E000BED1C0E7827802F003010229C1680BD029
:1092F000046A0D78E57002F003029B1A0A44C0E983
:109300000323002BACD1AEE70C88056A44F47E44FD
:10931000EC81F0E700600040240A002000FEFFFF1F
:1093200010B582B0EFF30383103B5BB203F1C001D1
:10933000574A584C52F821006FF3104042F8210070
:1093400054F82340E369DB6813B1A369002B49D1CA
:1093500022894FF6FF739A4275D12278236AF2B1BF
:10936000D98AC80612D01B8AC3F308030193A369E4
:10937000FBB9636A2BB1042201992046FFF736FC42
:1093800022782AB1236AD98AC906E8D1BE221A7185
:1093900023894FF6FF72934231D102B010BDA178FC
:1093A00001F003010229DED05B790193A369002B50
:1093B000DFD0A278606902F0030201A90AF0EFFC95
:1093C000D4E90521A37803F003031A44C91AC4E9B8
:1093D000052129B9636A1BB101222046FFF706FC6B
:1093E0002278CEE7636A0021C4E90511002BD4D0AE
:1093F0000122204602B0BDE81040FFF7F7BB1A0A71
:109400001201254952FA83F351F8232022F0011268
:1094100022F4404242F0040241F82320EFF310828C
:10942000012383F310881D4B196811B119680139A4
:1094300019601B681BB91A498020CB70C87082F371
:10944000108802B010BDEFF31081012383F3108860
:10945000124B1A681AB91248C2704022C2701A68B8
:1094600001321A6081F3108822890B49130A1B010B
:1094700053FA82F251F8223023F0011323F44043CF
:1094800043F0050341F82230236A227867E700BFE2
:1094900000600040240A002000080440200A002048
:1094A000000D044010B5EFF30384103C0B4B64B285
:1094B00053F82400D0E90821937803F07B039370DC
:1094C00019B102220021FFF791FB054BC03453F87C
:1094D00024206FF3104243F8242010BD240A0020FA
:1094E0000060004010B5EFF30384103C194B64B2E8
:1094F00053F82400037843B9837803F00303022B65
:1095000003D0036A5979C9B203E0036A198AC1F327
:10951000080193F804C01CF0100F0CF0380206D0BC
:1095200093F81CC01CF0010F08BF42F0400293F8F2
:1095300004C00CF0C70C83F804C0436A0BB1FFF7FA
:1095400055FB054BC03453F824206FF3104243F809
:10955000242010BD240A00200060004030B5436A7A
:1095600085B004468C4601ADABB193E8070085E8B1
:1095700007006268117883F804C0A26A9A601960D3
:109580001846226A9047636A1BB195E8070083E892
:10959000070005B030BD2B46EBE700BF10B4EFF37A
:1095A0000383103B5BB203F1C001144A144C52F820
:1095B00021006FF3104042F8210054F823305A691B
:1095C000D9698A4206D2D3E90240A8B1805CE07032
:1095D00001325A618A4202D05DF8044B70471A6921
:1095E000002AF9D19A685DF8044B937803F07B0365
:1095F00043F0040393707047E070E9E700600040B7
:10960000240A002010B4EFF30383103B5BB203F194
:10961000C001174A174C52F821006FF3104042F86E
:10962000210054F823305A69D9698A4206D2D3E915
:109630000240D0B1805CE07001325A619A698A427E
:1096400007D2986819694079541C9C618854D3E901
:109650000621914206D19A68937803F03B0343F0C8
:10966000040393705DF8044B7047E070E4E700BFBB
:1096700000600040240A002010B5EFF30384103C82
:109680000A4B64B2012153F824008268937803F0F6
:1096900003039370FFF762FFC034054B53F8242097
:1096A0006FF3104243F8242010BD00BF240A0020AD
:1096B0000060004010B5EFF30384103C0C4B64B223
:1096C0004FF0840C53F8240083689A7802F0030268
:1096D0009A701A7983F804C00421FFF73FFFC03461
:1096E000044B53F824206FF3104243F8242010BD9C
:1096F000240A00200060004003685969A1B190F875
:109700002D3070B5044603F0FF0563B98A68038CF9
:1097100096680868A1692A46B047E269C4E9085218
:10972000012384F8333070BD704700BF70B5866B7D
:1097300082B004460B466D463EB396E8030085E8CA
:109740000300E26B3371236832605A6912B194F8F6
:109750002D10A1B19B6913B194F82D2052B9636B00
:1097600030469847A36B1BB195E8030083E80300DC
:1097700002B070BD9A68186813699847EFE793685C
:1097800010681B6998472368E4E72E46D9E700BFB5
:10979000EFF30383103B5BB2044AC03352F823104B
:1097A0006FF3104142F82310704700BF0060004083
:1097B00070B5EFF30383103B5BB2614AC03352F8DC
:1097C00023106FF3104142F82310EFF30383103B93
:1097D0005C4A5BB252F823402269137BC3F300005A
:1097E000DB072CD494F82C3094F82A10994216D028
:1097F00094F82D1009B1022B41D02046FFF77CFFD1
:10980000236994F82820DA7094F82B2094F82C30EF
:10981000013A013384F82B2084F82C3070BD94F881
:10982000333003F0FF053BBB236A93BB94F82E3023
:1098300063B352210123D17284F8303070BD94F8A3
:109840002D308BB194F8313073B9636AA1695279C4
:10985000CA54D4E9082394F82E10013A0133C4E91C
:10986000082379B12269E4E7002001215423206212
:1098700084F82F10D37270BD84F8330070BD52236A
:10988000D37270BD23695422DA7270BD5423D3722F
:1098900070BD94F82D1041B9616AA069013B405C2C
:1098A0000131C4E90831D07070BD94F8311000293D
:1098B0002ED0216884F831504869002838D0896951
:1098C000002935D0E069022832D98E68831E0868E5
:1098D000B668F42191709BB2A2692946B04722680C
:1098E000E3695269916810688E68023B9BB22A4610
:1098F0002946B047E36922690220023BC4E9080314
:10990000012184F833100023FF209372D070CBE73D
:10991000636AA1695279CA54D4E90832013B013221
:10992000012BC4E90832226904D0FF20D070BBE7C4
:10993000012BE8D12023FF209372D070B4E700BF41
:1099400000600040240A002010B582B0EFF30383CA
:10995000103B374A5BB252F823000269D37A6FF3A7
:10996000C303D37290F82F30ABBB90F82A1003F0EA
:10997000FF0C90F82C3099421BD1036A5BB990F828
:109980002D1090F83040002914BF02210321A4B308
:10999000D372FFF7CBFEEFF30383103B5BB2254A94
:1099A000C03352F823106FF3104142F8231002B075
:1099B00010BDB3B9012929D090F829C00021D17276
:1099C00082F803C090F82B200133013A80F82B2055
:1099D00080F82C30DFE7F023D3720121FFF7A6FED9
:1099E000D9E790F82D4004F0FF016CB1022BE5D1CE
:1099F00090F829C04CF0010CE0E7F023D372937883
:109A000003F0CF039370C4E78C46D7E70190FFF7CC
:109A100073FE019890F82A30012B05D190F828C0E8
:109A2000026990F82C30C9E7026990F82C30C3E73E
:109A3000240A002000600040F0B583B0EFF30384F7
:109A4000103C154B64B253F82450EF68BFB16A68FC
:109A50002B6992F90D20121B18BF01226E46C3B16B
:109A600093E8030086E803001A706A695A60184692
:109A7000B8472B691BB196E8030083E80300074B46
:109A8000C03453F824206FF3104243F8242003B06D
:109A9000F0BD3346E8E700BF240A00200060004024
:109AA000EFF30383103B5BB20649074A51F82310DA
:109AB0000120C033087252F823106FF3104142F8AE
:109AC00023107047240A0020006000400B0A1B018D
:109AD000044853FA81F150F82130C3F340030020C9
