:10400000007F0020BDBE000065BD0000B9BE0000FD
:10401000B9BE0000B9BE0000B9BE0000B9BE0000C4
:10402000000000000000000000000000B9BE000019
:10403000B9BE000000000000B9BE0000B9BE00001B
:104040000000000000000000000000000000000070
:104050000000000000000000000000000000000060
:104060000000000000000000000000000000000050
:104070000000000000000000000000000000000040
:104080000000000000000000000000000000000030
:104090000000000000000000000000000000000020
:1040A0000000000000000000000000000000000010
:1040B0000000000000000000000000000000000000
:1040C00010B5054C237833B9044B13B10448AFF352
:1040D00000800123237010BD480300200000000071
:1040E000400D020008B5034B1BB103490348AFF371
:1040F000008008BD000000004C030020400D0200BD
:1041000014200BF079BB70B506250024C6B23046EA
:1041100009F072FE044404200BF06EFB013DF6D161
:10412000062094FBF0F070BD2DE9F0410446132009
:10413000FFF7E9FF804620601220FFF7E4FF074603
:1041400060601020FFF7DFFF0646A0600F20FFF73A
:10415000DAFF0546E0600E20FFF7D5FF104B206127
:104160001B689845B4BF4FF000084FF001089F420C
:10417000B4BF002701279E42B4BF002601269D42FE
:10418000B4BF002501259842B4BF0020012020764D
:1041900084F814806775A675E5752046BDE8F08142
:1041A0000800002008B5094B1A786AB100220848B7
:1041B0001A701A765A769A7602F04EFC054906482D
:1041C000BDE808400AF034BA08BD00BF580000201E
:1041D0000C0000202D7701004C0B002008B5084B87
:1041E0001A785AB1002207481A709A6002F034FC1B
:1041F00005490648BDE808400AF01ABA08BD00BFE4
:10420000E40600200C000020C17601004C0B0020C9
:1042100038B5114C237805460BB1FFF7DFFF0F4B84
:104220001B782BB1FFF7BEFF0D490E480AF000FACC
:1042300001232370C4E901530B490A480023E360BA
:104240000AF0D8F9094B0A490648012D18BF19464A
:10425000BDE838400AF0ECB9E40600205800002020
:10426000E37601004C0B002014770100DD7601009D
:10427000D87601009FED0C7ADFED0C7AB4EEC70A18
:10428000F1EE10FA0BDC9FED0A7ADFED087AB4EE5E
:10429000C70AF1EE10FA05D530EE270AF7E730EE3F
:1042A000670AEBE7704700BF000034430000B443E7
:1042B000000034C370B5094C257E6DB1E67E16B1A1
:1042C0000025284670BD0BF0DBFAE368C01A2369AD
:1042D0009842F5D32676F4E70125F2E7580000204E
:1042E000002808B519DD07EE900ADFED0F0AB8EED9
:1042F000E70A0EF00DFBDFED0D7A20EE270AF0EE57
:10430000007AB4EEE70AF1EE10FA09D4DFED087A8C
:10431000B4EEE70AF1EE10FA01DD9FED050A08BDE3
:10432000B0EE670AFBE700BFC3649ABF66438946E5
:1043300000007A442DE9F8432DED028B80460D46AE
:1043400091460BF09DFA0026074634465FFA88F83E
:10435000AE4208DA404609F04FFD044405200BF058
:104360004BFA0136F4E707EE105A07EE904AB8EE22
:10437000C70AF8EEE77ADFED150A9FED158A87EE9A
:10438000800A0EF0C5FA20EE088AF0EE007AB4EE4C
:10439000E78AF1EE10FA16D4DFED0E7AB4EE678AF2
:1043A000F1EE10FAC8BFB0EE678AB9F1000F04D081
:1043B0000BF066FAC01BC9F80000B0EE480ABDEC6D
:1043C000028BBDE8F883B0EE678AEEE7C3649ABF5C
:1043D0006643894600007A4438B54D484D4B4E4CF3
:1043E0002DED028B0122B0EE408A90ED030A1A7087
:1043F00002F06EFD38EE000A9FED487ADFED487A54
:1044000084ED000A0023B4EEC70AF1EE10FA12DCC4
:104410000BB184ED000AD4ED007ADFED426A9FED26
:10442000407A0023F4EEE67AF1EE10FA07D577EE43
:10443000877A0123F6E730EE670A0123E3E70BB141
:10444000C4ED007AB5EEC08AF1EE10FAD4BFF1EEF9
:10445000488AF0EE488A02F0F1F907EE900AF8EE89
:10446000E77A9FED317A314D67EEA87A67EE877A69
:1044700017EE900A0DF0AAFC23A3D3E900230DF058
:1044800027FE0DF0F3FF0DF0A1FC0022284B0DF0EC
:104490003FFB0DF0A3FF2860264802F09BF8264B57
:1044A0001860244802F09EF8244B18600BF0E8F9DD
:1044B000234BB5EEC08AF1EE10FA1860C7BF6FF05B
:1044C0003202332133226FF032011E4802F072FBB8
:1044D0001D491E480AF08EF820680DF077FC41EC6B
:1044E000100B002119480AF0F1F9194917480AF090
:1044F00081F8BDEC028B296814480A22BDE83840D7
:104500000AF00AB9AFF300800000000000CCB5400B
:1045100078060020E0060020C40600200000344396
:104520000000B443000034C300007E42DC060020DB
:104530000000E03F64030020D0060020D4060020E5
:10454000D80600200C000020B97201004C0B00209E
:10455000BE720100FFFFFFFFF8B57B4C6668042EBA
:104560002DED048B254605D9BDEC048BBDE8F84044
:10457000FFF718BE754B53F82630012B1CDC74492D
:1045800074480AF055F8637F4BB901259FED720A14
:10459000A577FFF721FF6576BDEC048BF8BD0023FE
:1045A0006E49237023766376A376BDEC048B69484D
:1045B000BDE8F8400AF03CB862695F1EBA421BDBF6
:1045C000667F012556B9664962480AF031F89FEDC9
:1045D000620AA577FFF700FFA676DCE761495D4830
:1045E0000AF026F89FED5C0AA577FFF7F5FE002399
:1045F000A37665765C49D8E7A168012916BF9C1EA1
:10460000541CA41A002C01DB9C4209DB5749514879
:1046100009F0F0FF0A2221464E480AF073F8A3E79A
:10462000534B544853F8263090ED030A90ED019A0D
:10463000D0ED028A03EBC4031A685B682A656B65D8
:1046400002F046FCD5ED140AB0EE408A95ED150A4D
:1046500070EEC90A30EE680A0EF0A8FBDFED3E7A74
:1046600060EE277A17EE900A0DF0B0FB34A3D3E981
:1046700000230DF02DFD0DF0F9FE07EE900A37EE48
:10468000C80AFFF7F7FD3C493248B0EE408A09F00E
:10469000B1FF69692F480A2201310AF031F8374920
:1046A0002C4809F0A7FF0A2239462A480AF028F8C0
:1046B0003349284809F09EFF324B264853F826100C
:1046C00009F0A1FF3049234809F094FF0A2221464E
:1046D00020480AF015F82D491E4809F08BFF286D77
:1046E0000DF074FB41EC100B02211A480AF0EEF8B1
:1046F0002749184809F07EFF686D0DF067FB41EC13
:10470000100B022113480AF0E1F82249114809F080
:1047100071FF18EE100A0DF059FB41EC100B01214E
:104720000C480AF0D3F81C490A4809F081FFB0EEA2
:10473000480AFFF751FE01236B762DE7AFF30080A7
:10474000182D4454FB210940580000208C780100AA
:104750004B7501004C0B0020000034438E750100A6
:10476000B9750100F8750100347601006176010029
:10477000C4000020780600208D76010097760100A5
:1047800099760100B0000020A3760100AE7601000A
:10479000E36E0100B3760100BE76010070B5314CC6
:1047A000657E2DED028B002D57D02F4B1E78002EED
:1047B00055D12E4BD4ED147A93ED017A94ED150A70
:1047C00077EEC77A93ED027A30EE470A20EE000AC0
:1047D000A7EEA70A0EF0ECFAB0EE408A02F02EF82F
:1047E000DFED237AC8EE276A07EE900AB8EEE77A83
:1047F000F6EE007AE6EE877A1E48FDEEE77AC4ED23
:10480000137A01F0E7FE60641A4801F0EBFEE36CF6
:10481000A064002B66760CDC1749184809F0EAFE04
:10482000636901336361FFF797FEBDEC028B284695
:1048300070BD6621124802F00FF8012311490F489C
:10484000A37609F0D7FEE16C0C480A2209F036FF86
:104850000D490A4809F0ECFEE7E70125E5E70025E8
:10486000E3E700BF58000020E006002078060020A3
:104870005CC74242640300205F6E01004C0B0020C5
:104880000C0000208D6E0100A86E01002DE9F84398
:104890003A4C2578074688461646002D69D10428EB
:1048A00068D800294FF0010914BF4FF0FF334B4681
:1048B000A36084F8009060600AF0E2FF331C18BF28
:1048C000012323762E4B65616576A576C4E9030640
:1048D00084F81B9053F827402A492B484C45CCBFFD
:1048E00004F1FF35254609F085FE284B264853F88C
:1048F000271009F088FE2649234809F07BFE254B46
:1049000025492148B8F1000F08BF194609F072FE89
:1049100022491D4809F06EFE0A2229461A4809F06C
:10492000EFFE1F49184809F065FE21460A22164885
:1049300009F0E6FE1B49144809F05CFEB8F1000FCF
:1049400015D01949104809F055FE18490E4809F0CC
:1049500051FE31460A220C4809F0E8FE14490A4883
:1049600009F066FE0EB9FFF7F7FD012502E01149D7
:10497000E8E700252846BDE8F88300BF580000207E
:104980008C780100517701004C0B0020B000002012
:10499000637701004D770100457701006D770100D5
:1049A000867701008B77010094770100D3770100AF
:1049B000DE770100B2770100F8B5B74CA77E2DED88
:1049C000028B2646002F00F0C38100220321122013
:1049D000FFF7B0FC002203210F20B0EE408AFFF762
:1049E000A9FCE57FB4EE408AF1EE10FAC8BFB0EE44
:1049F000408A002D40F0A18094F83C50FDB9F3EEC0
:104A00000E7AB4EEE78AF1EE10FA00F26781012324
:104A100084F83C300AF034FFA0492064A04809F033
:104A2000E9FD18EE100A0DF0D1F941EC100B02214E
:104A30009B4809F04DFFBDEC028B2846F8BD0AF0FB
:104A40001FFF236CC01AB0F5FA6F72D30022032146
:104A50001220FFF76FFC002203210F20B0EE408AE6
:104A6000FFF768FCB4EE408AF1EE10FAC8BFB0EE72
:104A7000408AF3EE0E7AB4EEE78A0025F1EE10FAE2
:104A800084F83C5057D82A4603211320FFF752FCE4
:104A90002A4603210E20F0EE408AFFF74BFCF4EE8D
:104AA000C08AF1EE10FA4FF00103CCBF1A464FF066
:104AB000FF327C482262E377636201F0CDFF1E2063
:104AC0000AF09AFE236A012B0CBF0E231323A36363
:104AD00001F0B4FE07EE900A9FED737A9FED730A22
:104AE000F8EEE76AF6EE007AE6EE877AFDEEE77A10
:104AF000C4ED0D7AD4ED087AF8EEE77A27EE800A55
:104B0000FFF76AFC6A49664809F074FD216A644847
:104B10000A2209F0F5FD6749614809F06BFD18EEBE
:104B2000100A0DF053F941EC100B02215C4809F01A
:104B3000CFFE00257FE76049EEE7636A022B37D19D
:104B400000220321A06BFFF7F5FB5C48B0EE408A22
:104B500001F040FDA36AC01A0FF087F904465748D8
:104B600001F040FDF36AC01A0FF07FF9DFED547ACF
:104B7000B4EEE78AF1EE10FA05DA8442736BB8BF3F
:104B80000446A342D5DC474801F066FF1E200AF028
:104B900033FE03237362336ADFED447A5B4200EE37
:104BA000103AB8EEC00A20EE270AFFF715FCC0E75E
:104BB000042BBED1414801F00DFDA36AC01A0FF0CD
:104BC00054F906463D4801F00DFDE36AC01A0FF0A6
:104BD0004CF9236BB042B8BF30469842A9DB31484C
:104BE00001F03AFF1E200AF007FE002635492C4846
:104BF000E6770523636209F01BFD334BD4ED147A8D
:104C000093ED017A94ED150A77EEC77A93ED027A67
:104C100030EE470A20EE000AA7EEA70A0EF0C8F809
:104C2000B0EE408A01F00AFEDFED287AC8EE276A6E
:104C300007EE900AB8EEE77AF6EE007AE6EE877AAB
:104C40001E48FDEEE77AC4ED137A01F0C3FC606400
:104C50001A4801F0C7FCE36CA064B3420ADC1C49AB
:104C60000F4809F0E5FC636901336361FFF774FCE9
:104C7000A676E0E617490A4809F0BCFC0A22E16C76
:104C8000074809F01BFD1449054809F0D1FC6621CD
:104C9000044801F0E1FD4CE758000020246D0100BC
:104CA0004C0B00200C000020626E83400000B442D8
:104CB0005A6D01004F6D0100746D01006403002006
:104CC000000018429C6D0100780600205CC742423B
:104CD000B96D0100FC6D0100A86E01001D4801F0D6
:104CE00079FC636CC01A0FF0C0F80646194801F051
:104CF00079FCA36CC01A0FF0B8F8E36CB042B8BFEF
:104D000030469842FFF615AF134801F0A5FE13494F
:104D1000134809F06FFC616911480A22013109F05A
:104D2000EFFC10490E4809F065FC0F4B61680C4818
:104D300053F821100A2209F0E5FC63695020013381
:104D400063610AF059FDFFF707FCA5763D4672E660
:104D5000012570E6640300200C0000202F6E010086
:104D60004C0B0020977601008C78010008B50C4BA5
:104D70001A78A2B11A7E32B1FFF79CFA78B1BDE879
:104D80000840FFF7E9BB5A7E1AB1BDE80840FFF7BB
:104D900005BD9B7E1BB1BDE80840FFF70DBE08BDF9
:104DA0005800002070B54F4E3378002B00F09980EA
:104DB0004D4801F00FFC4D4B1C68041B4A4801F0A4
:104DC00011FC4B4B1B68C01A0028B8BF4042494B2E
:104DD000002CB8BF6442A0421B68B8BF2046834283
:104DE000454C1FDC454801F037FE00254449454845
:104DF000357009F01DFCA37F002B72D0627FA57770
:104E000052B901234049E3762377627623763D4801
:104E1000BDE8704009F00CBC257025766576A57656
:104E20003A49F4E7E57F002D4DD0636A012B28D184
:104E30000223636201F002FD07EE900A9FED347ACF
:104E40002948F8EEE76AF6EE007AE6EE877AFDEE9C
:104E5000E77AC4ED0C7A01F0BDFBA062224801F0B4
:104E6000C1FB6621E062254801F0F6FC294925488E
:104E700009F0C0FB216B23480A22BDE8704009F00D
:104E80004BBC032B2DD10423636201F0D7FC07EE4A
:104E9000900A9FED1F7A1448F8EEE76AF6EE007A62
:104EA000E6EE877AFDEEE77AC4ED0C7A01F092FB2C
:104EB000A0620D4801F096FB6621E0620F4801F008
:104EC000CBFC1549D3E70AF0DBFC144B1B68C01A76
:104ED000B0F57A6F05D9094801F0BEFD357010496B
:104EE00095E770BDE006002064030020D006002096
:104EF000D4060020DC060020580000200C00002012
:104F0000487101004C0B0020CD72010017730100A5
:104F1000A8B71D3F6473010084730100D806002008
:104F2000A573010010B50D4C0D49204609F080FB1A
:104F30000C49204609F07CFB0B49204609F078FB20
:104F40000A49204609F074FB2046094909F070FB24
:104F50000848BDE8104001F0E3BF00BF4C0B002043
:104F6000E2770100F377010017780100267801004D
:104F70003B780100780600202DE9F84FC04D0FF076
:104F8000C8FE2E7844B22F4646B1582C00F040811E
:104F9000BC49BD48BDE8F84F09F04ABB502C00F0B1
:104FA000668121DC442C78D007DC0D2C03D0412C09
:104FB00069D00A2C31D1BDE8F88F482C00F05C8113
:104FC000492C00F0B081452C27D1B049AE4809F0FA
:104FD00011FB33210A22AC4809F094FB3321AC4881
:104FE000BDE8F84F01F0EABC542C00F093810DDCD1
:104FF000522C00F0308157DDA649A34809F018FB78
:105000006621A348BDE8F84F01F058BC572C12D0D8
:10501000582C00F0FD80562C55D02038C0B25E28A8
:10502000C9D89D49984809F0E5FA21469648BDE857
:10503000F84F09F011BB9949934809F0F9FA9848DB
:1050400001F0C8FA974B1860954801F0CBFA964BDF
:1050500018600AF015FC954B95491860954B8A48E5
:1050600001221A7009F0C6FA0A226421864809F062
:105070006CFB9149844809F0DBFA66218448BDE85D
:10508000F84F01F0E9BB8D497F4809F0D1FA9FED57
:105090008C0ABDE8F84FFFF79FB98A497A4809F0B2
:1050A000C7FA9FED890AF4E78849774809F0A2FA20
:1050B00033210A22744809F025FB33217448BDE8E6
:1050C000F84F01F02DBC82496F486F4D09F0B0FADE
:1050D000734801F07FFA0646714801F083FA0446EE
:1050E00001F0ACFB82460AF0CBFB7A498146664868
:1050F00009F080FA0A225146634809F003FB662151
:10510000634801F0A9FB664801F064FA871B644814
:1051100001F068FA001B27EAE77720EAE0784745C4
:10512000BB46B8BFC346DA4532DD0AF0A9FBA0EBA7
:105130000900632828D96849284609F05BFA0A2241
:105140003946284609F0BAFA6449284609F052FA65
:105150000A224146284609F0B1FA6149284609F079
:1051600049FA07EB08010A224910284609F0A6FA75
:105170005C49284609F03EFA0A225946284609F0B9
:10518000CBFA0AF07DFB814614200AF035FBBAE722
:105190003F4801F061FC424801F01CFA851B404881
:1051A00001F020FA5049041B374809F023FA0A227B
:1051B0002946354809F082FA4849334809F01AFA75
:1051C0000A222146304809F0A7FA84EAE476002D45
:1051D000A6EBE476B8BF6D42AE42B8BF2E46434957
:1051E000294809F007FA0A223146274809F094FABB
:1051F000304601F029FB3E49234809F0FBF901F054
:105200001DFB0A220146204809F07CFA3949C0E614
:1052100039491D4809F00CFA1D4801F01DFC254ACA
:1052200000231370354A3B70117821B13449164878
:10523000137009F0FDF9334C2368002B3FF4BBAE2B
:105240003149114809F0F4F9102120680CF052FCA2
:1052500000232360AFE62D490B4809F0E9F90C481B
:1052600001F0FAFB2A4801F04DFE2E70A3E6284813
:10527000BDE8F84F01F054BEBDE8F84FFFF752BE4D
:10528000E006002048F001004C0B002015740100DE
:105290000C000020DB73010048750100AD730100B4
:1052A00064030020C8060020CC0600207403002000
:1052B000C473010090060020DE770100EF73010047
:1052C0000000B4C21F7801000000B442F673010070
:1052D0003474010045740100557401005E740100CE
:1052E00062740100687401006E740100777401003B
:1052F0008C740100A874010005F101006503002011
:10530000B87401006C030020D674010035780100E8
:105310007806002009490A4809F08AF90948BDE8D9
:10532000F84F01F053BC084A13782BB901211170D2
:10533000064A074913602CE606492AE61AF10100DD
:105340004C0B00200C0000206503002068030020A7
:10535000F47401002B75010070B5134D134E144CFD
:1053600086B0284602F082FB124B31681A68284644
:1053700002F0F8FB1049204609F03CF9316820465C
:1053800009F060F92946684602F004FB0B49204603
:1053900009F030F96946204609F068F9084803F039
:1053A000B7F906B070BD00BF9807002004000020C8
:1053B0004C0B0020000000206E7801007F78010077
:1053C0009406002070B5502109480A4D0A4E03F09A
:1053D000DBF80A490A4801F071FC0024281931461B
:1053E0000C3409F0F8FAB4F5407FF7D170BD00BF76
:1053F000940600207803002019F4010064030020C3
:105400007806002038B5084CA4F5407520460C3CC1
:1054100009F096FAAC42F9D10448054B40F8103B2C
:10542000BDE8384002F09EBC6C06002094060020C7
:1054300040F7010010B5194C4FF4E131204608F057
:105440002FF91749204609F0F3F81649204609F0CC
:10545000EFF81549204609F0EBF81449204609F009
:10546000E7F81349204609F0E3F8124801F008FB79
:10547000114801F0CDF89FED111A1148F0EE410AE4
:10548000B0EE410A01F024FCFEF73AFE20460D4939
:1054900009F0CEF8BDE81040FFF75EBF4C0B0020CE
:1054A000B7F00100CAF00100E4F00100F7F00100DC
:1054B0000AF101000C00002064030020000000003D
:1054C000780600201FF101002DE9F04F2DED048B2F
:1054D000A1B00D220146044601A809F019FA2046A0
:1054E00002F078FE7D4913A809F075FA13A901A806
:1054F00009F058FB0028C0F28880012513A809F0A4
:105500001FFA002D00F0C7807549764F764EDFF800
:10551000208213A809F05FFA0025414613A809F07C
:10552000F8FA7249DFF8E491DFF808B219A809F037
:1055300052FA6F4B16A853F8251009F04CFA16A929
:1055400019A809F0F6FA6B4909F0FFFA014613A809
:1055500009F0CEFA16A809F0F3F919A809F0F0F944
:10556000654913A809F0D5FA4FF0000A3A68524588
:105570006FDDBAF1000F03D0494613A809F0C9FA4C
:10558000326802EBCA02D2ED008A92ED018A4146EE
:1055900013A809F0BEFA594619A809F01CFAB0EE92
:1055A000680A032116A809F063FA16A919A809F0D8
:1055B000C0FA494609F0C9FA014613A809F098FA59
:1055C00016A809F0BDF919A809F0BAF94B4919A8AC
:1055D00009F001FAB0EE480A032116A809F048FACA
:1055E00016A919A809F0A5FA014613A809F080FA2E
:1055F00016A809F0A5F919A809F0A2F9404913A8BD
:1056000009F087FA0AF1010AB0E73E4916A809F045
:10561000E2F916A901A809F0C5FA002804DB012562
:1056200016A809F08DF969E7374919A809F0D3F9E7
:1056300019A901A809F0B6FAC54319A8ED0F09F098
:105640007FF9EDE7314913A809F063FA043704360E
:1056500063E72F4913A8013509F05BFA052DF1D155
:105660002C4913A809F055FA2B49204608F0E0FF11
:105670002A49204608F0DCFF2949204608F0D8FFD7
:10568000204608F0CFFF13A9204608F0B7FF13A863
:1056900009F056F9EFE1234919A809F09CF919A975
:1056A00001A809F07FFA064619A809F049F9002E69
:1056B00042DB1949204608F0BBFF1B49204608F091
:1056C000B7FF1749204608F0B3FF204608F0AAFFAD
:1056D0001649204608F08EFFCDE100BFB06E0100F4
:1056E000AB7201008C780100C4000020D96E01006B
:1056F000B0000020E26E0100E56E0100F56E0100D1
:10570000FB6E0100BD6E0100CA6E0100E36E010078
:10571000FA6E0100FD6E0100FF6E01000F6F0100C7
:105720002E6F0100406F01004F6F010041AC01007E
:10573000D76E0100F06E0100AA4919A809F04BF9D3
:1057400019A901A809F02EFA064619A809F0F8F8D7
:10575000002EC0F26781A44DA44913A809F03BF9BB
:105760002B7E002B40F02F816B7E002B40F02D8193
:10577000AB7E002B40F02B812B78002B0CBF042636
:1057800000269B4919A809F026F90A22297816A8AB
:1057900009F040F916A919A809F0CBF9954909F0C3
:1057A000D4F9014613A809F0A3F916A809F0C8F81E
:1057B00019A809F0C5F8904919A809F00CF90A22AE
:1057C000314616A809F026F916A919A809F0B1F969
:1057D000884909F0BAF9014613A809F089F916A811
:1057E00009F0AEF819A809F0ABF8844919A809F036
:1057F000F2F80A22696816A809F00CF916A919A886
:1058000009F097F97B4909F0A0F9014613A809F0BE
:105810006FF916A809F094F819A809F091F87849D9
:1058200019A809F0D8F80A22A96816A809F0F2F810
:1058300016A919A809F07DF96E4909F086F9014603
:1058400013A809F055F916A809F07AF819A809F073
:1058500077F86C4919A809F0BEF80A22696916A8F8
:1058600009F0D8F816A919A809F063F9614909F0F7
:105870006CF9014613A809F03BF916A809F060F885
:1058800019A809F05DF8604919A809F0A4F80A22DE
:10589000E97E16A809F0BEF816A919A809F049F979
:1058A000544909F052F9014613A809F021F916A844
:1058B00009F046F819A809F043F8544919A809F065
:1058C0008AF895ED140A032116A809F0D1F816A953
:1058D00019A809F02EF9474909F037F9014613A82C
:1058E00009F006F916A809F02BF819A809F028F80C
:1058F000474919A809F06FF895ED150A032116A874
:1059000009F0B6F816A919A809F013F9394909F0F0
:105910001CF9014613A809F0EBF816A809F010F8D5
:1059200019A809F00DF83B4919A809F054F80A2202
:10593000E97F16A809F06EF816A919A809F0F9F878
:105940002C4909F002F9014613A809F0D1F816A86C
:1059500008F0F6FF19A808F0F3FF2F4919A809F07D
:105960003AF80A22696A16A809F054F816A919A883
:1059700009F0DFF81F4909F0E8F8014613A809F01B
:10598000B7F816A808F0DCFF19A808F0D9FF2B7E9D
:10599000FBB90025214919A809F01DF80A2229465A
:1059A00016A809F049F816A919A809F0C2F8014685
:1059B00013A809F09DF816A808F0C2FF19A808F06E
:1059C000BFFF17494DE60126DBE60226D9E603268E
:1059D000D7E609F055FFEB682D69C01A8542D8D982
:1059E0002D1AD7E7676F010058000020D76E01001D
:1059F000796F0100E36E0100836F01008C6F01007D
:105A00009A6F0100A76F0100B76F0100CA6F010014
:105A1000D56F0100E06F0100F26F0100037001001B
:105A2000FB6E0100A74919A808F0D5FF19A901A824
:105A300009F0B8F8064619A808F082FF002E28DB06
:105A4000A14B1A781AB31A7E0AB3DA7EFAB11A7F1A
:105A5000DD76C2B101225A779C499D481D774FF0EF
:105A6000FF329A605D6108F0E3FDFEF775FD99492C
:105A7000204608F0DDFD01A808F062FF21B0BDEC72
:105A8000048BBDE8F08FFEF767FD9349F0E793497B
:105A9000EEE7934919A808F09EFF19A901A809F09B
:105AA00081F8064619A808F04BFF002EC0F2A78027
:105AB0008C4919A808F08FFF19A901A809F072F8FC
:105AC000064619A808F03CFF002E49DB864919A8B4
:105AD000063608F080FF039B9E420FD2314601A894
:105AE00009F040F890F90010A1F13003DBB2092B66
:105AF00004D819A809F012F80136ECE719A809F042
:105B000081F8074619A808F01BFF784919A808F082
:105B100062FF19A901A809F045F8064619A808F07E
:105B20000FFF002E32DB7049714D16A808F053FFAD
:105B30000436039B9E4215D2314601A809F012F8A3
:105B400090F90010A1F10D03DBB2192B03D825FA4F
:105B500003F3DB0706D416A808F0E0FF0136E8E7F8
:105B60002F46D2E716A809F041F8624919A808F0B3
:105B700032FF19A916A809F015F8054619A808F06A
:105B8000DFFEED4316A8ED0F08F0DAFE5A4919A81A
:105B900008F021FF19A901A809F004F8064619A880
:105BA00008F0CEFE002E26DB4F4919A8063608F075
:105BB00012FF039B9E420FD2314601A808F0D2FF8C
:105BC00090F90010A1F13003DBB2092B04D819A819
:105BD00008F0A4FF0136ECE719A809F013F806460F
:105BE00019A808F0ADFE324629463846FEF74EFEAB
:105BF00018B142493CE70026F5E7414938E74149F9
:105C000019A808F0E8FE19A901A808F0CBFF05467D
:105C100019A808F095FE002D03DBFEF7C3FA3A49F8
:105C200026E73A4919A808F0D6FE19A901A808F0F4
:105C3000B9FF054619A808F083FE002D2FDB344973
:105C400019A808F0C8FE19A901A808F0ABFF05467D
:105C500019A808F075FE002D1FDB05F10A036A1D67
:105C600001A916A808F0A2FF2A4919A808F0B3FE56
:105C700019A916A808F096FF0028B4BF4FF0FF3509
:105C8000012519A808F05CFE2846FEF7C1FA224952
:105C9000204608F0CDFC16A8FAE42049E8E62049A1
:105CA00019A808F098FE19A901A808F07BFF05467D
:105CB00019A808F045FE002D36DBFEF78FFA1949CA
:105CC000D6E600BF17700100580000202A700100BE
:105CD0004C0B00205B70010092700100C27001004B
:105CE000FA7001000B71010019F40100127101003A
:105CF00001000802177101001B71010022710100EF
:105D00004B7101007C7101008C710100BA710100BE
:105D10006E6D0100CB710100D07101000A720100AB
:105D2000467201005C7201008D4919A808F053FE0B
:105D300019A901A808F036FF054619A808F000FEC9
:105D4000002DC0F2D78019A8FEF7EEF9854890ED36
:105D5000030A90ED019AD0ED028A01F0B9F8824968
:105D600004A8B0EE408A08F036FE804916A808F074
:105D700032FEB0EE490A022113A808F079FE13A9F9
:105D800016A808F0D6FE7A4908F0DFFE014604A8FE
:105D900008F0AEFE13A808F0D3FD16A808F0D0FD59
:105DA000744916A808F017FEB0EE680A022113A87D
:105DB00008F05EFE13A916A808F0BBFE6C4908F0B7
:105DC000C4FE014604A808F093FE13A808F0B8FD2D
:105DD00016A808F0B5FD684916A808F0FCFDB0EE5D
:105DE000480A012113A808F043FE13A916A808F0D9
:105DF000A0FE5F4908F0A9FE014604A808F078FE5D
:105E000013A808F09DFD16A808F09AFD5B490AA8A2
:105E100008F0E1FD0A22199907A808F0FBFD07A97F
:105E20000AA808F086FE524908F08FFE0A220546AD
:105E30001A990DA808F0EEFD0DA9284608F079FE84
:105E40004B4908F082FE0A2205461B9910A808F06B
:105E5000E1FD10A9284608F06CFE454908F075FEE2
:105E60000A2205461C9913A808F0D4FD13A9284658
:105E700008F05FFE3E4908F068FE0A2205461D99BB
:105E800016A808F0C7FD16A9284608F052FE3C499E
:105E900008F05BFE014604A808F02AFE16A808F0E8
:105EA0004FFD13A808F04CFD10A808F049FD0DA8FF
:105EB00008F046FD07A808F043FD0AA808F040FDD9
:105EC000304904A808F025FE2F49204608F0B0FB11
:105ED0002E49204608F0ACFB2D49204608F0A8FBCF
:105EE000204608F09FFB04A9204608F087FB04A881
:105EF000FFF7CEBB274919A808F06DFD19A901A825
:105F000008F050FE054619A808F01AFD002D14DB14
:105F1000214919A808F05FFD19A901A808F042FE5F
:105F2000054619A808F00CFDA91C01A808F01AFEE6
:105F300090F90000FFF720F85BE61349204608F0CF
:105F400077FB1649204608F073FB1149204608F0FC
:105F50006FFB204608F066FB1149FFF7BABB00BF94
:105F60009672010078060020D76E0100F06E0100E5
:105F7000E36E0100F56E0100A0720100A67201003F
:105F8000FD6E0100FB6E0100FF6E01000F6F01004E
:105F90002E6F0100AD720100B67201004F6F01005B
:105FA000A078010000B591B00E49684602F0FEFAF3
:105FB000049B01330FD0694608A801F0AFFE08A882
:105FC000FFF782FA08A801F0CDFE012009F014FCC9
:105FD000684602F02FF9684601F0C4FE11B05DF882
:105FE00004FB00BF940600202DE9F0472DED068B41
:105FF000104CBCB009F044FC2368C01A312805D904
:106000000D4800F095FE09F03BFC20600B4807F0BE
:1060100088FBA8B10948094C07F0E4FB40B2FEF741
:10602000ABFF204607F07DFB50B1204607F0DAFBBE
:10603000F7E700BF70030020780600204C0B00201B
:10604000BE4CFEF7AFFEFEF791FE2378002B51D039
:10605000BB4B1D78002D4DD12A4603211220FEF79F
:1060600069F92A4603210F20F0EE409AFEF762F903
:106070002A4603211320B0EE409AFEF75BF9F3EEB7
:106080000E8A2A4603210E20B0EE408AFEF752F90E
:10609000F4EEE89AF1EE10FA10D8B4EEE89AF1EEC8
:1060A00010FA0BD8B4EEE88AF1EE10FA06D8B4EE86
:1060B000E80AF1EE10FA94BF012500256368F4EEBA
:1060C000C99A012BA36818BFB0EE408AF1EE10FA0E
:1060D00054BFB0EE49AAB0EE69AA032B40F05E812E
:1060E000002D00F05381E368002B40F0178109F088
:1060F000C7FBE060934B1B78002B35D0924E09F024
:10610000BFFB3368C01A63282ED9904800F062FAAA
:106110008F4B1C68041B8D4800F064FA8D4B196886
:10612000411A21EAE17524EAE4748B498B4808F0AE
:1061300061FA0A222146894808F0C0FA884987484E
:1061400008F058FA0A222946844808F0B7FA854927
:10615000824808F04FFA61190A2249107F4808F076
:10616000DBFA09F08DFB30607F4B1B78002B5ED093
:106170007E4C09F085FB2368C01AF92857D909F02D
:106180007FFB20600DA8FDF7CFFF704800F022FADA
:106190003CAC05466D4800F025FA002344F8C03DAC
:1061A0000646224606211320FEF7C4F822460621A1
:1061B000122010EE107AFEF7BDF8224606211020BC
:1061C00010EE108AFEF7B6F8224606210F2010EED8
:1061D000109AFEF7AFF8224606210E2010EE10AA04
:1061E000FEF7A8F810EE100A0BF0F0FDCDE90A0159
:1061F00050460BF0EBFDCDE9080148460BF0E6FDFB
:10620000CDE9060140460BF0E1FDCDE90401384639
:106210000BF0DCFD0096CDE902012B46A021544A8B
:1062200014A80EF061FC14A94C4808F00BFA514C6C
:10623000052009F0E1FAFFF7B5FE2368002B68D0CE
:106240001B7B002B65D009F01BFB23689A685968FB
:10625000821A8A425DD3986014A8FDF765FF1498EE
:10626000FEF73EF8159810EE108AFEF739F81698EA
:1062700010EE107AFEF734F8179810EE106AFEF759
:106280002FF8189810EE105AFEF72AF83A493348BA
:1062900010EE104A08F0AEF940460BF097FD41ECC5
:1062A000100B01212D4808F011FB34492B4808F050
:1062B000A1F938460BF08AFD41EC100B012127486B
:1062C00008F004FB2E49254808F094F930460BF0FD
:1062D0007DFD41EC100B0121204808F0F7FA294917
:1062E0001E4808F087F928460BF070FD41EC100BB2
:1062F00001211A4808F0EAFA1949184808F07AF911
:1063000020460BF063FD41EC100B0121134808F00F
:10631000DFFA3CB0BDEC068BBDE8F08709F0B0FABF
:10632000E368C01A42F20F7398427FF6E3AE164953
:106330000A4808F07DF9FDF751FFDBE6E40600208E
:106340005800002090060020740300206403002001
:10635000C8060020CC060020557401004C0B00201C
:106360005E74010062740100650300206803002070
:1063700053F001006C030020A0F00100A9F001001F
:10638000AEF00100B2F00100F4EE01000123C4E917
:1063900002356049604808F04BF9ABE6022B08D1A2
:1063A0005E4B1B78002B7FF4A5AE0123A3605C49F4
:1063B000F0E7F4EEE89AF1EE10FA1CD9B4EEE89AA0
:1063C000F1EE10FA17D9B4EEE88AF1EE10FA12D90C
:1063D00002235448A36000F03FFBD4ED017A9FED07
:1063E000520AF8EEE77A27EE800AFDF7F5FF4F49EB
:1063F000494808F01DF94DB14A4800F02DFB032330
:10640000A36009F03DFA4A49E060C3E7B4EEE8AAA8
:10641000F1EE10FA10D802234248A36000F01CFBF2
:1064200094ED010ADFED437AB8EEC00A20EE270AA8
:10643000FDF7D2FF4049ADE7F2EE0E7AB4EEE78AFF
:10644000F1EE10FA33D5C8EE276A9FED3C7ADFED06
:106450003C7AE6EE877ABBEE047ADFED3A6A63684F
:1064600067EEA67AB5EEC07AFDEEE77A17EE902ACF
:106470003C2AB8BF3C22FF2AA8BFFF22012B41D1F2
:10648000F1EE10FA33D5FDEEC77A17EE903A1344C9
:106490003C2AB8BF3C2211461A463C2AB8BF3C22CF
:1064A000FF2AA8BFFF221F4800F084FB22E6B3EEBC
:1064B000097AB4EEC78AF1EE10FAF7EE007A13DD2E
:1064C00038EE478AC8EE076A9FED1F7AE6EE877AB4
:1064D000DFED1E6AF4EEE67AF1EE10FAB3EE047A1E
:1064E000BBDDF0EE667AB8E79FED197AB5E70DDD12
:1064F000BDEEC77A17EE101A1144FF2908DC1346C7
:106500000A46C5E7F1EE10FAF2D4BCDC1346BFE749
:10651000FF21C2E744EF01004C0B0020E006002001
:1065200065EF01000C0000200000B4428EEF010076
:10653000F7EF01000000B4C22DF00100CDCCCC3E3D
:106540009A99193F0000C842CDCC4C3E9A99993F88
:106550000000000010B5082008F0B0FF044602203B
:1065600008F0ACFF094B003418BF01241B78003041
:1065700018BF012084420CBF4FF0FF30012003B14F
:106580004042034A13681844106010BDFC06002006
:10659000F406002010B5092008F090FF04460320FF
:1065A00008F08CFF094B003418BF01241B78003021
:1065B00018BF012084420CBF4FF0FF30012003B10F
:1065C0004042034A13681844106010BDD8000020F0
:1065D000F806002072B6024B186862B6704700BF1A
:1065E000F406002072B6024B186862B6704700BF0E
:1065F000F806002072B6034A00231360024A1360B3
:1066000062B67047F4060020F8060020FFFFFFFF87
:10661000F8B502212DED028B0446082008F02AFF70
:106620000221084608F026FF0221092008F022FF77
:106630000221032008F01EFF022006F09EFF0646FE
:10664000032006F09AFF022205465B49304607F018
:1066500005F802225949284607F000F82046584C10
:10666000584DFFF7C7FF5849204607F0C3FF0A22DD
:106670002968204608F044F85449204607F0BAFF3C
:106680005349204607F0B6FF0A220821204608F0A9
:1066900037F85049204607F0ADFF0A220221204674
:1066A00008F02EF84C49204607F0A4FF0A220921E1
:1066B000204608F025F84949204607F09BFF0A22AA
:1066C0000321204608F01EF8286807EE900AF8EE2D
:1066D000E77A17EE900A0BF079FB02460B4630A1E1
:1066E000D1E900010BF0F4FC0BF0C0FE08EE100A3B
:1066F0003B49204607F07EFF18EE100A0BF066FBC0
:1067000006460F4647EC106B0621204608F0E0F8DD
:106710003449204607F06EFFDFED337AC8EE277A62
:1067200017EE900A0BF052FB0022304B0BF0A6FB49
:106730001DA3D3E900230BF0CBFC0BF097FE0BF06D
:1067400045FB41EC100B0621204608F0C1F8284912
:10675000204607F04FFF32463B46304639460BF0A5
:10676000D7F913A3D3E900230BF0B2FC00221F4B8F
:106770000BF084FB0CA3D3E900230BF0A9FC0BF076
:1067800075FE0BF023FBBDEC028B41EC100B204699
:106790000621BDE8F84008F09BB800BFAFF30080C9
:1067A000AF0BA279EB584840182D4454FB21094007
:1067B0000000000000C04F405565000095650000D6
:1067C0004C0B0020DC00002069F1010071F1010098
:1067D00077F1010081F1010087F101008DF10100E5
:1067E00093F101009DF1010000007E4200806640AF
:1067F000B0F10100FFFFFFFF08B507EE901A0E4B46
:10680000B8EEE77AD3ED007AF8EEE77AC7EE277AAA
:1068100017EE900A0BF0DAFA05A3D3E900230BF088
:106820002DFB0BF023FE00EE100A08BDAFF3008035
:10683000AF0BA279EB584840DC000020014B1868F0
:10684000704700BFDC0000200028C4BF014B186067
:10685000704700BFDC000020FF29A8BFFF2150299E
:1068600010B50C46B8BF502407EE904AB8EEE70AC0
:10687000DFED117A2DED028B20EE270A0CF01CFAC9
:1068800000210520B0EE408A07F08EFB214606204D
:1068900007F08AFB00210A2007F086FBFDEEC87A8C
:1068A000BDEC028B17EE901A0B2081F30801BDE8B6
:1068B000104007F079BB00BF6666863FFF29A8BF7E
:1068C000FF21502910B50C46B8BF502407EE904A5E
:1068D000B8EEE70ADFED117A2DED028B20EE270AE4
:1068E0000CF0EAF921460520B0EE408A07F05CFB87
:1068F0000021062007F058FBFDEEC87A0A2017EEAB
:10690000901A81F3080107F04FFBBDEC028B0021C8
:106910000B20BDE8104007F047BB00BF6666863F0E
:1069200038B522480D4681F30804214907F062FE7C
:106930000A2221461D4807F0E5FE002D11DC00214A
:10694000052007F031FB0021062007F02DFB002178
:106950000A2007F029FB00210B20BDE8384007F092
:1069600023BB2146052007F01FFB0021062007F06E
:106970001BFB10490D4807F03DFE0A2221460B483B
:1069800007F0C0FE00210A2007F00EFB21460B2075
:1069900007F00AFB0849054807F02CFE21460A22A9
:1069A0000248BDE8384007F0ADBE00BF4C0B0020E8
:1069B00039F2010047F201004DF2010038B52248DA
:1069C0000D4681F30804214907F014FE21460A22EE
:1069D0001D4807F097FE002D4FF000014FF0050015
:1069E0000FDC07F0E1FA0021062007F0DDFA0021B4
:1069F0000A2007F0D9FA00210B20BDE8384007F043
:106A0000D3BA07F0D1FA2146062007F0CDFA104993
:106A10000D4807F0EFFD0A2221460B4807F072FEF1
:106A200021460A2007F0C0FA00210B2007F0BCFA2B
:106A30000849054807F0DEFD21460A220248BDE864
:106A4000384007F05FBE00BF4C0B002053F201003E
:106A500061F2010067F2010008B50021052007F08E
:106A6000A3FA0021062007F09FFA00210A2007F070
:106A70009BFA00210B20BDE8084007F095BAFFFF04
:106A800010B501210446052008F0F4FC0121062080
:106A900008F0F0FC01210A2008F0ECFC01210B2099
:106AA00008F0E8FC2046084CFFF7D6FF07492046CF
:106AB00007F0BEFD0649204607F0BAFD204605490D
:106AC000BDE8104007F0B4BD4C0B0020F2F101000E
:106AD00007F201001FF2010011F1FF0F38B50D465A
:106AE0001DDBFF290C46A8BFFF2400290CDD4F2920
:106AF000D8BF50240021052007F056FA2146062071
:106B0000BDE8384007F050BA0BD04F35C4F1000152
:106B1000A8BF5021052007F047FA0021EFE7FF2129
:106B2000F8E7052007F040FA2946E8E7FF2938B5DD
:106B3000A8BFFF216FF0FE04A142B8BF214607EEB7
:106B4000901A9FED1B0AF8EEE77A27EE800A0CF008
:106B5000B3F8FDEEC07A17EE905AA54218DBFF2D70
:106B600017EE904AA8BFFF24002D0DDD631E4E2BAB
:106B700098BF502400210A2007F016FA21460B2066
:106B8000BDE8384007F010BA0AD014F1500F05D80C
:106B900061420A2007F008FA0021F0E75021F8E7E7
:106BA00017EE901A0A2007F0FFF92946E7E700BF21
:106BB0006666863F38B504461546FFF78DFF2946C1
:106BC0002046BDE83840FFF7B1BFFFFF38B5344C71
:106BD00034490546204607F02BFD3349204607F08F
:106BE00027FD0021052007F0DFF99621062007F098
:106BF000DBF94FF47A7008F0FFFD2846FFF72CFF11
:106C00004FF4967008F0F8FD2849204607F010FD73
:106C10009621052007F0C8F90021062007F0C4F9E5
:106C20004FF47A7008F0E8FD2846FFF715FF4FF49F
:106C3000967008F0E1FD1E49204607F0F9FC00219E
:106C40000A2007F0B1F996210B2007F0ADF94FF4B7
:106C50007A7008F0D1FD2846FFF7FEFE4FF49670DB
:106C600008F0CAFD1349204607F0E2FC96210A20ED
:106C700007F09AF900210B2007F096F94FF47A708B
:106C800008F0BAFD2846FFF7E7FE4FF4967008F0CB
:106C9000B3FD20460849BDE8384007F0C9BC00BF35
:106CA0004C0B0020C1F10100D6F10100DBF1010025
:106CB000E0F10100E5F10100EAF10100002242608B
:106CC0008260C26000220160C0E904227047FFFFB9
:106CD00010B5044680ED010AC0ED020A11EE100A5B
:106CE0000BF074F80FA3D3E900230BF0C7F80022D0
:106CF000094B0BF0EDF90BF0B9FBE0602068FFF7F2
:106D000069FC20612068FFF76DFC0449606104485C
:106D1000BDE8104007F08CBC0080664070F20100B6
:106D20004C0B0020182D4454FB210940FFFFFFFFAE
:106D30002DE9F04704462DED068B0068FFF74AFC6D
:106D400082462068FFF74EFC6169461A21690546B4
:106D5000AAEB01012068FFF74FFD31462068B0EE35
:106D6000408AFFF749FD9FED587A38EE009A30EEE1
:106D7000480A94ED038A80EE07AA0FF23419D9E984
:106D80000089F6EE007A29EE279A7AEE088AF0EE6C
:106D9000679A18EE900A0BF019F842464B460646E1
:106DA0000F460BF0FBFAD0B90FF20C19D9E90089A4
:106DB00018EE900A0BF00AF842464B4606460F467C
:106DC0000BF0CEFAB8B13EA3D3E9002330463946E2
:106DD0000AF09EFE0BF04AFB08EE900AE8E738A3A3
:106DE000D3E90023304639460AF090FE0BF03EFB13
:106DF00008EE900ACDE79FED357AF0EEC97AF4EE11
:106E0000C77AF1EE10FA4BDDAAEE298A0FF2A0093B
:106E1000D9E9008918EE100A0AF0D8FF42464B461D
:106E200006460F460BF0BAFAD0B90FF28C09D9E931
:106E3000008918EE100A0AF0C9FF42464B46064682
:106E40000F460BF08DFAB8B11DA3D3E900233046ED
:106E500039460AF05DFE0BF009FB08EE100AE8E780
:106E600017A3D3E90023304639460AF04FFE0BF052
:106E7000FDFA08EE100ACDE7B0EE480A0BF0FEFC72
:106E8000D4ED017AE9EE007AB0EE480AC4ED017A59
:106E90000BF042FFD4ED027AE9EE007AC4ED027AFB
:106EA000C4ED038ABDEC068BC4E904A5BDE8F087F8
:106EB000182D4454FB210940182D4454FB2109C0CE
:106EC000182D4454FB21194000007E426F12833A72
:106ED00008B510EE100A0AF079FF0022084B0AF0FC
:106EE000CDFF05A3D3E900230BF0F2F80BF0BEFAB7
:106EF00000EE100A08BD00BF182D4454FB210940C4
:106F00000080664010B5002343608360C360044680
:106F10000068FFF76FFB0023C4E9043310BDFFFFD7
:106F200038B5214C21490546204607F063FB6868C7
:106F30000AF04CFF41EC100B0121204607F0C6FC83
:106F40001B49204607F056FBA8680AF03FFF41ECBA
:106F5000100B0121204607F0B9FC1649204607F026
:106F600049FBE8680AF032FF0022134B0AF086FF63
:106F70000BA3D3E900230BF0ABF80BF077FA0AF080
:106F800025FF41EC100B0021204607F09FFC204616
:106F90000A49BDE8384007F04BBB00BFAFF30080A3
:106FA000182D4454FB2109404C0B0020B176010000
:106FB000E36E01006DF2010000806640BE760100C4
:106FC00008B50368002B02DA09480AF098FD8B42E5
:106FD00008D949008B4205D20029B6BF6FF00043A3
:106FE000016003600068BDE8084001300AF058BD48
:106FF00089F3010010B50446406828B163781BB9D5
:1070000040F2AC410AF076FD204610BD08B4F3B55D
:1070100007AB044600F10C0553F8042B01938021C3
:1070200028460DF0AFFED4F89000A8B194F8943043
:10703000012B11D90F4907F0E6FAD4F890603368B4
:1070400028465F680DF0A4FD294602463046B84741
:10705000D4F8900007F0E6FA284664680DF098FD31
:1070600029460246204606F031FC02B0BDE8F04059
:1070700001B07047D9F20100034653F8080B98425B
:1070800001D00AF02DBD7047F8B5064645680846A0
:107090000F460DF07DFDA842024628BF2A46044651
:1070A00022B1394630680CF06BFF00B9281BF8BDDF
:1070B000012A30B404D191F90030037030BC70471C
:1070C000002AFBD030BC0CF06ABFFFFF00F10803C0
:1070D00073B5044603600D46D1B108460DF058FD66
:1070E0000F280646019006D9002101A8FFF768FF86
:1070F000019B2060A360324629462068FFF7D8FF35
:10710000019B2268636000212046D15402B070BD0B
:1071100001480AF0F1FC00BFA1F301002DE9F3479B
:10712000DDF82880164642689A46A8EB0603571AEF
:1071300013440268019300F108039A420D46044685
:1071400014BF81680F2101A8FFF73AFFBF1B8146DA
:107150001DB12A462168FFF7ABFFBAF1000F08D036
:10716000B8F1000F05D04246514609EB0500FFF784
:107170009FFF47B121682E4405EB08003A46314491
:107180004844FFF795FF2046FFF776FF019BC4F8C0
:107190000090A36002B0BDE8F087F7B502684668CA
:1071A00000F108039A4218BF836806F1010508BF81
:1071B0000F239D4204460F4606D901230093002366
:1071C0001A463146FFF7AAFF23689F55236865607A
:1071D00000225A5503B0F0BD012A30B404D191F910
:1071E0000030037030BC7047002AFBD030BC0CF07C
:1071F000E1BEFFFF2DE9F74F8146144640680C9E23
:1072000002F10042013A121A9642984602D93748D2
:107210000AF075FC4A46A6EB040B52F8083B934271
:1072200018BFD9F808200BEB000A08BF0F225245FF
:1072300052D35F189845A0EB0101A1EB040522D3BE
:10724000034498451FD876BB95B1B44210D02A4666
:107250003919B819FFF7C0FFB44209D23C4408EB12
:1072600006039C4227D3324641463846FFF7B4FF17
:10727000D9F80030C9F804A00022484603F80A20D3
:1072800003B0BDE8F08F35B1B44204D02A463919B5
:10729000B819FFF7A1FF002EEAD032464146384622
:1072A000FFF706FFE4E7B4421DD3324641463846B5
:1072B000FFF792FFC8E7444503D8324608EB0B01BD
:1072C000EDE7A4EB0804224641463846FFF784FF69
:1072D000321BB9193819E3E700964346224648465F
:1072E000FFF71CFFC4E7002DB8D0B0E770F3010032
:1072F00037B5044608460D460DF04AFC2B46009073
:10730000626800212046FFF775FF03B030BDFFFF24
:107310002DE9F04F8FB00AAB0391064608939849C8
:107320000398002309938DF828309246FFF7ACFEAE
:10733000031C0490D6F8900018BF0123069328B1CF
:1073400096F8943013B18F4907F05DF908F098FA78
:107350004FF00008CDE901880123DFF850B2059015
:10736000474699464446079308F08AFA059BB26857
:10737000C01A904200F21C81079B5BB170680268E2
:1073800012699047079B0028EDD0706803685B691D
:10739000984745B2D6F8900038B196F8943023B1AA
:1073A0000A2D24D1784907F02EF9D6F8900060B163
:1073B00096F89430022B08D9744907F024F90A2270
:1073C0002146D6F8900007F09DF9631E072B29D8B7
:1073D000DFE813F03A005C0081008D009000BA00F5
:1073E0002D01A500092C00F0E5800123BBE70D2D40
:1073F00001D16749D7E7202D01D16649D3E71F2D79
:107400000CDC654907F0FFF829460A22D6F89000FF
:1074100007F09BF96149D6F89000C4E7294607F0C8
:10742000F6F8C2E72B2D05D1294608A8FFF7B5FECF
:107430000124DAE71BF90730AB4240F09F80DDF80A
:10744000188001370824D0E73A2D294608A801D032
:107450003D2D3DD1FFF7A1FE049B8BB1039B099A03
:107460005B689A4206D15AB1039B089819680CF0E0
:1074700087FD28B14A4908A8FFF73AFF4FF00108F5
:1074800047495046FFF734FF0224AEE77C2D11D167
:10749000DAF800000CF0D1FC0023CAF80430DAF866
:1074A000003002904FF000021A7000280CBF052433
:1074B00003249AE70D2D00F0B1800A2D00F0B08072
:1074C00096F88C3013B1202D00F0AC802946504640
:1074D000FFF763FE89E729465046FFF75EFE019BF2
:1074E000029A01330193934208BF05247DE70A2DD8
:1074F00008BF05242B495046FFF7C6FD60B12A4955
:107500005046FFF7C1FD002804BF4FF001090924D0
:107510004F2D2AD1012795E781460924F8E71BF969
:1075200007207B1C58460793AA4218BF07240DF07A
:107530002FFB079B98426FD107464FF00009B8F127
:10754000000F19D1092435E01BF907207B1C584690
:107550000793AA4218BF07240DF01AFB079B984215
:107560005AD107464FF00109E9E7B8F1000F3FF49F
:1075700039AF092C7FF439AF4FF00008002434E70D
:107580002AF3010037F301003DF3010058F3010035
:1075900042F3010047F301004CF3010040F3010006
:1075A00019F4010048710100AAF201004EF3010034
:1075B0004FF00309D6F89000B8B196F89430022B3A
:1075C00013D91E4907F01FF80A222146D6F8900069
:1075D00007F096F81A49D6F8900007F014F80A2236
:1075E0004946D6F8900007F08DF8D6F890000123B0
:1075F00086F88C3048B196F8943033B1114907F0D1
:1076000002F8D6F8900007F00DF808A8FFF734FD4F
:1076100048460FB0BDE8F08F1F46E6E60424E4E6D6
:107620000524E2E6B8F1000F7FF4DFAE9BE600230D
:1076300098464FF002091C4695E600BF53F301003F
:1076400060F3010066F3010030B50446406803684A
:107650008DB05B68984706AA1D496846FFF736FD5E
:1076600008AB069306AA00236946204607938DF8C7
:107670002030FFF74DFE0546D4F8900088B194F80D
:107680009430012B0DD9134906F0BDFF0699D4F8AB
:10769000900006F0D7FF7DB90F49D4F8900006F0AE
:1076A000D1FF06A8FFF7E8FC6846FFF7E5FCB5FA4E
:1076B00085F040090DB030BD012DD4F8900001D106
:1076C0000649ECE7032D0CBF05490649E7E700BF73
:1076D0002AF3010077F2010091F201009FF201000C
:1076E000B0F20100C3F2010008B42DE9F3431646DD
:1076F000044609AB306853F8042B0193884604F123
:107700000C05002171600170802128460DF03AFBC4
:10771000D4F89000B0B106F085FF2449D4F8900069
:1077200006F071FFD4F890703B682846D3F80490B7
:107730000DF02EFA294602463846C847D4F8900084
:1077400006F070FF284667680DF022FA29460246C7
:10775000384606F0BBF8324641462046FFF7D8FDD2
:107760000546D4F8900068B1114906F04CFF316825
:10777000D4F8900006F066FF65B90E49D4F8900081
:1077800006F060FFB5FA85F0400902B0BDE8F043AD
:1077900001B07047012DD4F8900001D10649EFE700
:1077A000032D0CBF05490649EAE700BF14F30100A9
:1077B0001EF3010091F201009FF20100B0F20100FE
:1077C000C3F201002DE9F0430446406891B016462B
:1077D000002834D02378002B31D10368194DDB69A0
:1077E000DFF86C90DFF86C80174F98470AAA1749AA
:1077F00004A8FFF76BFC60680368DB6898474FF4E8
:10780000FA72AA602378A3B9002E12DD03AA4946B2
:107810000AA8FFF75BFC3B4604AA0AA9CDF8008042
:107820000848FFF761FF20700AA8FFF725FC013E1A
:10783000E8E742F2107304A8AB60FFF71DFC11B03B
:10784000BDE8F083000700208701020019F4010061
:10785000F1F2010001F30100074B084858600022D3
:10786000012142F210701A705970986083F88C10E0
:1078700083F89420704700BF00070020A414002064
:107880000148FFF7B7BB00BF0007002008B5036839
:10789000002B02DA09480AF032F98B4208D9490074
:1078A0008B4205D20029B6BF6FF000430160036030
:1078B0000068BDE8084001300AF0F2B889F3010021
:1078C00073B542F21073036000F5F8730025C0F839
:1078D000E831012600F50273044680F8E451C0F84F
:1078E000EC5180F8F051C0F80032C0F8045280F832
:1078F000085204230096A822C02100F5067006F065
:107900000BFD33460096A822C02104F50C7006F04A
:1079100003FDFF2300951A46194604F5127006F080
:10792000FBFC204602B070BD73B505460E4619B982
:1079300012B10D480AF0E0F8941B0F2C019406D9FF
:10794000002101A8FFF7A2FF019B2860AB6022463F
:1079500031462868FFF7ACFB019B2A686B60002169
:10796000D15402B070BD00BFA1F3010038B500F1E1
:107970000803044603600D4649B108460DF008F9B6
:107980002A1820462946FFF7CFFF204638BD4FF082
:10799000FF32F6E770B503228EB005464FF4E131B1
:1079A0002848FFF70FFF0024274902A8FFF7DEFF52
:1079B0002346224621460094284606F0ADFC234982
:1079C00008A8FFF7D3FF224B009302AA214B1D48C2
:1079D00008A9FFF789FE064608A8FFF74DFBD6B1B8
:1079E00002980CF02AFA01281BD11B4908A8FFF7BE
:1079F000BDFF1A4B00930194194B124802AA08A923
:107A0000FFF772FE044608A8FFF736FB1CB1029987
:107A1000284606F0A3FD02A8FFF72EFB28460EB06D
:107A200070BD02980CF009FA0228F4D10D4908A89B
:107A3000FFF79CFF0C4B034802AA08A9FFF754FE6E
:107A4000E0E700BF0007002019F40100E8F301009F
:107A5000F3F3010087010200E6F40100EEF40100F7
:107A60001AF40100CDF40100D8F4010010B5104C57
:107A700010498CB06846FFF779FF032220464FF487
:107A8000E131FFF79FFE0C4906A8FFF76FFF0B4B94
:107A90006A4606A92046FFF727FE044606A8FFF718
:107AA000EBFA6846FFF7E8FA20460CB010BD00BFBD
:107AB0000007002019F40100CBF30100D8F3010006
:107AC00070B590B00C4604A81E491E461546FFF737
:107AD0004DFF03224FF4E1311B48FFF773FE1B49B2
:107AE0000AA8FFF743FF02230193194B009304AA4E
:107AF000184B15480AA9FFF7F7FD0AA8FFF7BCFACB
:107B000015490AA8FFF732FF144B01940093CDE901
:107B10000256134B0C4804AA0AA9FFF7E5FD0446D8
:107B20000AA8FFF7A9FA24B104980CF086F90128F5
:107B300006D0092404A8FFF79FFA204610B070BDB4
:107B40000724F7E719F4010000070020E8F301001B
:107B500021F401001AF40100A2F40100BDF40100B7
:107B6000B0F401000123FFF7ABBFFFFF0148FFF7AF
:107B7000A7BE00BF9807002010B5054C04F50070A3
:107B8000FFF77AFA04F5F470FFF776FA10BD00BF3C
:107B900098070020002070470069013018BF0120BD
:107BA000704708B503685B6B984780F00100C0B26E
:107BB00008BD13B502AB026803F8011D54681946ED
:107BC0000122A04702B010BD07B5036801225B6A1D
:107BD0000DF10701984701280CBF9DF807004FF0F1
:107BE000FF3003B05DF804FB00690B69C31A58420B
:107BF0005841704770470020704740F20C41C06800
:107C000009F078BF10B51021044609F073FF204633
:107C100010BD08B5FFF7F6FF08BD7FB50368044641
:107C2000164601A81D6A06F0D9FB32460199204686
:107C3000A847044601A806F083FE204604B070BDA4
:107C4000036810B504469B689847A368013BA3608E
:107C50002BB923682046DB68BDE81040184710BDEB
:107C600000F1080370B5044603600E46B1B1084642
:107C70000CF08EFF0F28054604D9013009F010FFE3
:107C8000A5602060012D20680BD196F900300370AB
:107C90002368656000225A55204670BD044809F0EB
:107CA0002BFF002DF4D02A4631460CF078F9EFE78F
:107CB000A1F30100036813B962B6BFF36F8F704779
:107CC00013B5EFF3108300930123019372B6019B68
:107CD0005A1E019233B104686846FFF7EBFF204655
:107CE00002B010BD6846FFF7E5FFF8E713B504469C
:107CF000EFF3108300930123019372B6019B5A1E88
:107D00000192684633B1FFF7D5FF601CC0F309004C
:107D100002B010BDFFF7CEFFFAE7FFFF0023C0E976
:107D200005334FF47A72C0E90132C3610B69036114
:107D30008B698361CB69044A02601BB15A680132C6
:107D40005A60C361704700BF90F6010010B5044649
:107D5000006828B14368013B43600BB9FFF770FF2F
:107D6000204610BD10B5044B044640F81C3BFFF7FD
:107D7000EDFF204610BD00BF90F6010030B503694D
:107D8000002B8FB0044607DB0368DB6A984718B9FD
:107D9000236820469B6A98472369013321D1124901
:107DA00002A8FFF75DFF03224FF4E1310F48FFF710
:107DB00009FD0F4908A8FFF753FF0E4B009302AAD5
:107DC0000D4B0A4808A9FFF78FFC054608A8FFF7E6
:107DD00053F91DB102980CF030F8206102A8FFF7AA
:107DE0004BF90FB030BD00BF19F4010000070020AF
:107DF00069F6010077F601008701020070B50446BC
:107E000092B00D461646FFF7B9FF2369002B25DB1C
:107E10001E4906A8FFF724FF03224FF4E1311C4856
:107E2000FFF7D0FC6369DBB11A490CA8FFF718FF14
:107E300063690295CDE9036323690193164B0093AF
:107E400006AA164B12480CA9FFF74EFC04460CA8D4
:107E5000FFF712F906A8A4B9FFF70EF9002013E006
:107E60000F490CA8FFF7FCFECDE9025623690193E8
:107E70000C4B009306AA0C4B05480CA9FFF734FCE9
:107E8000E4E7FFF7F9F8012012B070BD19F4010022
:107E900000070020A8F50100C8F50100B8F50100B1
:107EA000DAF50100FBF50100EEF5010070B503699C
:107EB000002B90B005460E4614462ADB164904A84E
:107EC000FFF7CEFE03224FF4E1311448FFF77AFCAE
:107ED00013490AA8FFF7C4FE02942B690193114BC2
:107EE000009304AA104B0D480AA9FFF78FF80AA8BF
:107EF000FFF7C2F8224631460848FFF7A5FB0546C2
:107F000004A825B1FFF7B8F8204610B070BDFFF700
:107F1000B3F80024F8E700BF19F4010000070020BF
:107F200082F5010099F501008FF5010030B5036974
:107F3000002B8FB0054635DB84695CB104F58160A8
:107F4000FFF7BEFE002808DDA86900F58160FFF795
:107F5000B7FE044620460FB030BD154902A8FFF712
:107F60007FFE03224FF4E1311248FFF72BFC124948
:107F700008A8FFF775FE2B690193104B009302AA26
:107F80000F4B0C4808A9FFF7AFFB044608A8FFF702
:107F900073F84CB102980BF050FF041E04DA02A8EB
:107FA000FFF76AF80024D5E702A8FFF765F8D1E7E4
:107FB00019F401000007002029F6010035F6010040
:107FC0001AF401002DE9F04F0369002B93B0074626
:107FD000C0F287808369002B00F08380424906A8A5
:107FE000FFF73EFEBA69EFF310830C9301230D9364
:107FF00072B60D9B591E0D911BB1D2F80854C5F5F0
:1080000080653A4E0CA8FFF755FE00240322304647
:108010004FF4E131FFF7D6FB013D86F88C4034493F
:108020000CA8FFF71DFE02953B690193314B0093AD
:108030003046314B06AA0CA9FFF756FB06460CA8A2
:10804000FFF71AF8002E41D0079B002B47D04FF0C6
:108050000109CA46AC4239D2079B9C4236D2069BE4
:10806000BE6913F804B0EFF31083CDE9043972B69A
:10807000059B5A1E059223B3EFF31083CDE90C3A0A
:1080800072B60D9B5A1E0D923BB1D6F80834A3F57B
:108090008063D3F1000848EB03080CA8FFF70AFE41
:1080A000B8F1000FE4D1D6F8000406F800B0FFF7ED
:1080B0001DFED6F80834C6F800040133C6F80834AB
:1080C000D6E704A8FFF7F6FD0134C3E74FF0FF340D
:1080D00006A8FEF7D1FF204613B0BDE8F08F1C467E
:1080E000F6E74FF0FF34F6E719F40100000700202F
:1080F0004EF501005EF501008FF5010038B504462C
:1081000080690D4650B100F58160FFF7D9FDA842A6
:1081100004D22046BDE83840FFF754BF38BD2DE9F2
:10812000F74F07468A4611461646FFF7E7FF3B69B9
:10813000002B33DBBC6994B34FF0010B5644002491
:10814000D946B2452BD0BBF1000F28D0BD69D5F878
:1081500008344BB995F800809B460AF8018BBBF1B7
:10816000000FEED00134ECE7EFF31083CDE90039D6
:1081700072B6019B5A1E019263B1D5F8040415F83A
:108180000080FFF7B3FDD5F80834C5F80404013BBF
:10819000C5F808346846FFF78DFDDEE70024204669
:1081A00003B0BDE8F08F10B504460121FFF7A6FF2C
:1081B0002369002B0ADBA36943B1D3F808241AB161
:1081C000D3F80424985C10BDFF20FCE74FF0FF308B
:1081D000F9E7FFFF10B50369002B8EB004461DDBE5
:1081E0000F4902A8FFF73CFD03224FF4E1310D488F
:1081F000FFF7E8FA0C4908A8FFF732FD236901935D
:108200000A4B009302AA0A4B064808A9FFF76CFA2A
:1082100008A8FEF731FF02A8FEF72EFF0EB010BD32
:1082200019F401000007002070F5010078F5010045
:108230001AF4010010B50369002B8EB0044620DB50
:10824000154902A8FFF70CFD03224FF4E131134852
:10825000FFF7B8FA124908A8FFF702FD2369019356
:10826000104B009302AA104B0C4808A9FFF73CFAE8
:1082700008A8FEF701FF4FF0FF33236102A8FEF7C5
:10828000FBFEA3690022C3F80024C3F80424C3F84A
:1082900008240EB010BD00BF19F401000007002033
:1082A00030F501003EF501001AF4010010B5036835
:1082B0008EB01B6904469847002829DC2369002BEF
:1082C00028DB154902A8FFF7CBFC03224FF4E1316C
:1082D0001248FFF777FA124908A8FFF7C1FC236993
:1082E0000193104B009302AA0F4B0C4808A9FFF70B
:1082F000FBF9044608A8FEF7BFFE1CB102980BF07C
:108300009CFDC4B202A8FEF7B7FE20460EB010BD19
:108310000124FAE70024F8E719F40100000700201F
:1083200043F6010055F601001AF4010030B50C4681
:1083300095B0054602A805F0E7FF2369002B34DB62
:108340001E4908A8FFF78CFC03224FF4E1311C48BA
:10835000FFF738FA1B490EA8FFF782FC2369019347
:10836000194B009308AA194B15480EA9FFF7BCF941
:1083700004460EA8FEF780FEA4B108992C4602A878
:1083800006F0ECF8124B44F8043B03AB0FCB84E847
:108390000F009DF81C302B7508A8FEF76DFE2846CF
:1083A00015B030BD08A8FEF767FE002300931A46FB
:1083B0001946284605F0B0FFF1E700BF19F40100A7
:1083C0000007002011F601001CF601001AF401005C
:1083D00070FA010010B50369002B8EB0044626DB4D
:1083E000144902A8FFF73CFC03224FF4E131124884
:1083F000FFF7E8F9114908A8FFF732FC2369019358
:108400000F4B009302AA0F4B0B4808A9FFF76CF91A
:10841000044608A8FEF730FE1CB102980BF00DFDD3
:1084200084B202A8FEF728FE20460EB010BD00243C
:10843000FAE700BF19F401000007002014F501005D
:1084400021F501001AF4010013B500230446D1E917
:108450000002C1E900332368206002A8009363682A
:1084600040F8043D6260FFF771FC204602B010BD89
:1084700073B54FF47A730025C0E90153174B0360BD
:108480004FF0FF33C0E904350446C0E9065540F219
:108490000C4009F005FB4FF48062064629460BF0BC
:1084A000A2FD1020C6F80054C6F80454C6F80854BB
:1084B000CDE9006509F0F4FA0123C0E90133084B66
:1084C0000360C6600190694604F11800FFF7BCFF25
:1084D00001A8FFF73BFC204602B070BD90F60100FA
:1084E00000F5010073B54FF47A730025C0E901531C
:1084F000164B03600446C0E90415C0E9065540F276
:108500000C4009F0CDFA4FF48062064629460BF084
:108510006AFD1020C6F80054C6F80454C6F8085482
:10852000CDE9006509F0BCFA0123C0E90133084B2D
:108530000360C6600190694604F11800FFF784FFEC
:1085400001A8FFF703FC204602B070BD90F60100C1
:1085500000F50100704708B503685B69984780F033
:108560000100C0B208BD13B502AB026803F8011DDB
:10857000546819460122A04702B010BD80688B687C
:10858000C31A58425841704710B500234360064B48
:1085900003604FF0FF330446C0E902311030FFF7AB
:1085A00067FF204610BD00BF40F701002DE9F041F4
:1085B0008B68013392B007460C4663D00AAA334950
:1085C00004A8FEF783FD03224FF4E1313048FFF7A2
:1085D000F9F803AA2F490AA8FEF778FDA3680193CA
:1085E0002D4B009304AA2D4B29480AA9FFF77CF8CC
:1085F00005460AA8FEF740FD002D40D004980BF078
:108600001CFC236A8342014604F110080AD141464A
:108610003846FFF783FB04A8FEF72EFD384612B05C
:10862000BDE8F0810AA8FFF75DFF0B9B63610C9B1F
:10863000A3610D9BE361119E0E9BE56A23620F9B74
:108640006362AE42109BA36215D016B1736801330A
:1086500073607DB16B68013B6B605BB92B6828462A
:108660009B689847AB68013BAB601BB92B682846F9
:10867000DB689847E6620AA8FFF774FBC7E704A81F
:10868000FEF7FAFC3846FFF7F3FEC7E719F40100DE
:108690000007002010F7010022F701001AF4010082
:1086A00030B58368013391B004460D4624D10AAA3F
:1086B000124904A8FEF70AFD03224FF4E1311048E5
:1086C000FFF780F803AA0F490AA8FEF7FFFC0E4B3C
:1086D0000195009304AA0D4B09480AA9FFF704F875
:1086E00005460AA8FEF7C8FC1DB104980BF0A5FBCF
:1086F000A06004A8FEF7C0FC11B030BD19F4010061
:1087000000070020D4F60100E2F601001AF401008F
:10871000C168FFF7C5BFFFFF70B58368002B92B03B
:1087200005460E4614462CDB0CAA174906A8FEF790
:10873000CDFC03224FF4E1311448FFF743F805AABA
:1087400013490CA8FEF7C2FC0294AB680193114BCD
:10875000009306AA104B0D480CA9FEF757FC0CA875
:10876000FEF78AFC224631460848FEF76DFF0546B3
:1087700006A825B1FEF780FC204612B070BDFEF7BA
:108780007BFC0024F8E700BF19F40100000700207B
:10879000F2F6010000F701008FF5010008B506F0C0
:1087A00085FF002008BD27207047704737B5FFF7C9
:1087B000FCFF01210D2006F05DFE00210D2006F0DA
:1087C00071FE68460722032109F0FAF8BDF800306F
:1087D0001C4CC3F384130125684607220521E55488
:1087E00009F0EEF8BDF80030C3F3841368460722A1
:1087F0000621E55409F0E4F8BDF80030C3F3841312
:10880000684607220921E55409F0DAF8BDF800307E
:10881000C3F38413684607220A21E55409F0D0F80F
:10882000BDF80030C3F3841307220B216846E554DA
:1088300009F0C6F8BDF80030C3F38413E55403B063
:1088400030BD00BFD60A002030B5836A85B004462B
:108850008C4601ADABB193E8070085E8070062687C
:10886000117883F804C0E26A9A6019601846626A57
:108870009047A36A1BB195E8070083E8070005B09D
:1088800030BD2B46EBE700BF10B4EFF30383103B82
:108890005BB203F1C001204A204C52F821006FF373
:1088A000104042F8210054F82330D3E906218A42CF
:1088B0001BD0186940B393F820400F2C0BD999684E
:1088C000496840F82210D96901328A429A610CD075
:1088D0005DF8044B7047072C19D8996809798154C1
:1088E000D96901328A429A61F2D15B680C4993F9E5
:1088F00003305DF8044B5809012203F01F0302FA0C
:1089000003F341F82030704798684068DCE79C68C2
:10891000A48820F81240D7E700600040440A0020F5
:1089200000E100E0F0B5EFF30383103B5BB203F12D
:10893000C0022F492F4C51F822006FF3104041F82C
:10894000220054F823305868026A002A30D092F886
:1089500001C0DC695A69BCF1010F17D094420FD0F5
:10896000D96841B393F820000F280AD807289868DF
:1089700095BF895C31F812100171818001325A6112
:10898000F0BD986851F822104160F7E704F1FF3E0E
:10899000724513D001690029E0D090F90310164800
:1089A0004D0901F01F010CFA01F140F82510D5E73F
:1089B0005A69DC69D2E798684160DFE790F903E023
:1089C0000EF1C0064FEA5E10800051F8267000F1EB
:1089D000604000F561400EF01F0E0CFA0EF56FF3CB
:1089E000104741F82670C0F880510560B6E700BF17
:1089F00000600040440A002000E100E010B4EFF302
:108A00000383103B5BB2324A324C03F1C00152F88F
:108A100021006FF3104042F8210054F823008268CF
:108A2000D278920706D54268527A012A02D05DF8C0
:108A3000044B70475909284C0122203103F01F03D1
:108A400002FA03F344F82130BFF34F8FBFF36F8F67
:108A5000436893F90230002B2FDB5909203103F0D2
:108A60001F0302FA03F344F82130BFF34F8FBFF323
:108A70006F8FD0E90114237891F902106FF38613F8
:108A80000029237014DB01F1C00C114C4B099B0031
:108A900001F01F018A4003F1604354F82C1003F5E4
:108AA00061436FF3104144F82C10C3F880211A6021
:108AB0005DF8044B0121FFF7C7BE82685DF8044BE7
:108AC00013786FF3861313700121FFF7BDBE00BF4B
:108AD00000600040440A002000E100E070B5EFF3C0
:108AE0000384103C314B64B253F82460736893F9EB
:108AF0000230002B42DB5A092D492032012003F0BD
:108B00001F0300FA03F341F82230BFF34F8FBFF386
:108B10006F8FD6E9012392F902101A7800296FF3BA
:108B200086121A7015DB01F1C00C224D4A09920021
:108B300001F01F0100FA01F102F1604255F82C002A
:108B400002F561426FF3104045F82C00C2F8801125
:108B50001160DA780021D5B21207D97021D4EB0761
:108B600012D405F01405142D16D0124BC03453F84E
:108B700024206FF3104243F8242070BDB3681A78A4
:108B80006FF386121A70E4E70421304605F01405ED
:108B9000FFF75AFE142DE8D108213046FFF754FEA6
:108BA000E3E705213046FFF74FFED8E7440A0020EF
:108BB00000E100E000600040036A70B50446987868
:108BC00000F07B0098700D46217841B32261E26984
:108BD000E5601069002841D0226982B1A3788168DC
:108BE00000688E68E16803F00303013B22FA03F397
:108BF000002222619BB2B04780B9236A21789A781B
:108C000042F080029A7039BB94F802C00CF0030C59
:108C1000BCF1020F1AD02A78DA70002070BD94F8E7
:108C200002C0E0690CF0030E0069A2EB0E022261A3
:108C300005EB0E02E2600028CED19A780CF0030C0E
:108C400042F08002BCF1020F9A70E4D12A8842F40B
:108C50007E420020DA8170BD002070BD9A7842F01B
:108C600080029A7070BD00BF036A91F801C09A78C3
:108C700000B502F07B0E02F00B029A700022C26077
:108C80008878587010461A786CF301021A70CA7806
:108C90009A7493F807C00A780CF0A30102F05C0202
:108CA0000A43DA7183F802E05DF804FB10B5D0E9FD
:108CB0000721002343608B7092F905202F49044659
:108CC00050090123203002F01F0203FA02F241F89A
:108CD0002020BFF34F8FBFF36F8FE26992F90B2013
:108CE0005009203002F01F0203FA02F241F820205E
:108CF000BFF34F8FBFF36F8FE26992F907205009DE
:108D0000203002F01F0203FA02F241F82020BFF3E4
:108D10004F8FBFF36F8FE26992F90920500902F07B
:108D20001F02934000F1200241F82230BFF34F8F21
:108D3000BFF36F8FE369DA6822B1936810681B6A2A
:108D40009847E3691B691BB19A681868136A9847CA
:108D5000EFF31081012383F31088E369084A1C783C
:108D6000D2F800014FF00043E3400343C2F8003162
:108D7000D2F8003181F31088002010BD00E100E03E
:108D8000006F0440F0B5846A85B005460F469446EE
:108D90006E46B4B194E80F0086E80F00EB691B78CB
:108DA00084F804C02360EB6A2046C4E902736B6A4E
:108DB0009847AC6A1CB196E80F0084E80F0005B034
:108DC000F0BD3446EAE700BF8C46516830B4029CDF
:108DD0000D6880B91C609CF8010038B9E8784FF044
:108DE000010C0B346CF30510E8701C60936810687C
:108DF0001B6830BC184704F10C001860EBE700BF9B
:108E00002DE9F0470D4609780323CB4013F0010309
:108E100001F1007218BF1023037002F560528378CD
:108E20005201012161F301030262A9696A69426288
:108E30000022C0E90A21C56183706B7882B00446C4
:108E400023B98378022262F30103837095F90B0042
:108E5000594B95F80AC04209203200F01F06012143
:108E600001FA06F643F82260BFF34F8FBFF36F8F0E
:108E7000524A534E00F1C0074FEA0C1C52F827E04B
:108E80006FF3104E42F827E01F185FFA8CFC87F84A
:108E900000C346F8204095F9050095F804C047093D
:108EA000203700F01F0E01FA0EFE43F827E0BFF353
:108EB0004F8FBFF36F8F00F1C00703EB000852F82C
:108EC00027E04FEA0C1C5FFA8CFC6FF3104E42F85F
:108ED00027E088F800C346F8204095F9070095F888
:108EE00006C04709203700F01F0E01FA0EFE43F8B6
:108EF00027E0BFF34F8FBFF36F8F00F1C00703EB85
:108F0000000852F827E04FEA0C1C5FFA8CFC6FF364
:108F1000104E42F827E088F800C346F8204095F943
:108F2000090095F808C04709203700F01F0E01FA24
:108F30000EF143F82710BFF34F8FBFF36F8F00F18F
:108F4000C0074FEA0C1152F827C003446FF3104CCE
:108F500042F827C0C9B283F80013EA6846F82040F7
:108F600072B153681B684FF4002143F8041B216A57
:108F700005310091E1692078FFF726FF0646B0B978
:108F80002A69FAB153681B684FF0006143F8081B67
:108F9000216A03310091E1692078FFF715FF064649
:108FA00080B1EB681BB19A681868136A984730461D
:108FB00002B0BDE8F08700BF00E100E000600040C3
:108FC000440A0020EFF31080012383F31088984BAC
:108FD0002E78D3F800214FF00041F14022EA01023F
:108FE000C3F80021D3F8003180F31088236AE069C8
:108FF00000229A701A715A729A72DA725A83297818
:1090000040F20722CA40D20744BF4022DA74062247
:109010001A7722787AB1C168013A002900F0FE80FF
:109020000126120391B2314341F006029A829A8AD4
:1090300092B29142FBD1EA78A978D20042EA0112B9
:109040006978032900F0D780002914BFF221E221BA
:10905000ED69D2B21A7099712A7B520002F00202B5
:109060005A736A78A97800261E7295F800C0D2015A
:10907000490101F02001D2B20A43ACF102010129F9
:1090800040F2BD80D2B2DA716A689178597019786D
:10909000567866F301011970D17899741278D979EC
:1090A00002F05C0201F0A3010A43DA710027C4E96F
:1090B0000377C4E9057790F905105E4E01F1C00E03
:1090C0004A0956F82E80920067F3104802F1604278
:1090D00046F82E8002F561424FF0010E01F01F01AB
:1090E0000EFA01F1C2F88011116090F90B1001F134
:1090F000C0094A0956F829A0920002F1604202F51F
:10910000614267F3104A01F01F0146F829A00EFAE8
:1091100001F1C2F88011116090F9071001F1C00946
:109120004A0956F829A0920002F1604202F5614214
:1091300001F01F0167F3104A46F829A00EFA01F169
:10914000C2F88011116090F9091001F1C0004A09BC
:1091500056F82090920002F1604267F3104946F8F9
:10916000209002F561420CF0030C01F01F010EFA91
:1091700001F14CF0700CC2F88011116083F802C04C
:109180006B8923814FF6FF7843452DD0EFF3108193
:109190008EF31088284A13681BB92848C3704023EF
:1091A000C37013680133136081F310882189244848
:1091B0000B0A1B0153FA81F150F8213023F00113FF
:1091C00023F4404343F0040340F82130EFF31081CF
:1091D000012383F31088136813B11368013B1360F4
:1091E0001368B3B181F31088164B636000263046D4
:1091F00002B0BDE8F08742F04002F22128E7BCF15E
:10920000020F08BF42F01002FF21D2B25970DA718A
:109210004CE70A4A8020D370D070E3E7C169097A2D
:109220001140090201F4706141F00106F9E600BF46
:10923000006F044000600040400A0020000D044020
:1092400000080440554943532DE9F04F1E46FF23C3
:10925000B37033786FF382038BB033708023F37075
:10926000554B0992554A1B6A12680191C3F302617A
:109270008A40C3F30233DA40514B07900021100AB1
:1092800006920891059002910093A2FB03BA099BF4
:10929000009A93426EDA9DF8203003930027494BE1
:1092A000039ADD5DC5F34003C5F3800504932B43AA
:1092B000934256D1444B33F81780079B03FB08F8C1
:1092C000069BB3FBF8F2541EFF2C4AD802FB08F9A8
:1092D0001DE0059BB9FBF3F37F2B03FB00F040D9A6
:1092E0000028B8BFFF300012A0F5C330A038002816
:1092F000009AB8BF4042824240DC029BF370337850
:1093000043F00403A9EB0809337054B3013C4A4607
:109310004FEAE9735846514609F0F8F8019A002AD5
:10932000D7D1A0F5C333A03B002B009AB8BF5B4256
:109330009A4216DD0093234BB470DA5D3378C2F3A2
:10934000000161F38613049961F3041365F3C30309
:1093500033707378C2F3C10262F301037370019B2F
:10936000029301370D2F9AD1089BF3B1009B099A04
:1093700093421DDC00200BB0BDE8F08F0293114B2F
:10938000049AD95D33780090C1F3000060F386132E
:1093900062F3041365F3C30333707378B470C1F3DD
:1093A000C10161F301037370A7E7012308936EE71E
:1093B00003200BB0BDE8F08F00E00140D00A002090
:1093C000A086010094F90100A4F90100F0B5EFF3C3
:1093D0000383103B5BB203F1C001344A344C52F8B2
:1093E00021006FF3104042F8210054F82300C369B4
:1093F0001B6913B1036913B1F0BD036983B9D0E9E7
:109400000824937803F07F03002143F00403937052
:10941000C160002CF0D0BDE8F0408022FFF7B2BC64
:1094200005785DB3066AF18AC1F30421A9421ED210
:109430008478C2681F4F04F0030E74460BE092F864
:1094400000C086F80FC001311B1B2244A942C0E9AD
:1094500003230CD25BB1BEF1020FF0D1B2F800C011
:109460004CEA070C1FFA8CFCA6F80EC0EBE7327929
:109470006FF3C7123271002BBED1C0E7827802F0C1
:1094800003010229C1680BD0046A0D78E57002F06F
:1094900003029B1A0A44C0E90323002BACD1AEE7B8
:1094A0000C88056A44F47E44EC81F0E700600040DB
:1094B000440A002000FEFFFF10B582B0EFF30383E3
:1094C000103B5BB203F1C001574A584C52F82100DF
:1094D0006FF3104042F8210054F82340E369DB6841
:1094E00013B1A369002B49D122894FF6FF739A4229
:1094F00075D12278236AF2B1D98AC80612D01B8AA4
:10950000C3F308030193A369FBB9636A2BB1042277
:1095100001992046FFF736FC22782AB1236AD98ABE
:10952000C906E8D1BE221A7123894FF6FF72934211
:1095300031D102B010BDA17801F003010229DED0C3
:109540005B790193A369002BDFD0A278606902F0F8
:10955000030201A90AF023FDD4E90521A37803F051
:1095600003031A44C91AC4E9052129B9636A1BB166
:1095700001222046FFF706FC2278CEE7636A00212D
:10958000C4E90511002BD4D00122204602B0BDE869
:109590001040FFF7F7BB1A0A1201254952FA83F36C
:1095A00051F8232022F0011222F4404242F004023A
:1095B00041F82320EFF31082012383F310881D4B21
:1095C000196811B11968013919601B681BB91A496A
:1095D0008020CB70C87082F3108802B010BDEFF30A
:1095E0001081012383F31088124B1A681AB91248AC
:1095F000C2704022C2701A6801321A6081F310886A
:1096000022890B49130A1B0153FA82F251F82230C6
:1096100023F0011323F4404343F0050341F82230C3
:10962000236A227867E700BF00600040440A0020F8
:1096300000080440400A0020000D044010B5EFF37C
:109640000384103C0B4B64B253F82400D0E908218A
:10965000937803F07B03937019B102220021FFF786
:1096600091FB054BC03453F824206FF3104243F8AC
:10967000242010BD440A00200060004010B5EFF324
:109680000384103C194B64B253F82400037843B9A7
:10969000837803F00303022B03D0036A5979C9B21C
:1096A00003E0036A198AC1F3080193F804C01CF0AF
:1096B000100F0CF0380206D093F81CC01CF0010FFC
:1096C00008BF42F0400293F804C00CF0C70C83F8C6
:1096D00004C0436A0BB1FFF755FB054BC03453F888
:1096E00024206FF3104243F8242010BD440A0020C8
:1096F0000060004030B5436A85B004468C4601AD39
:10970000ABB193E8070085E807006268117883F839
:1097100004C0A26A9A6019601846226A9047636A78
:109720001BB195E8070083E8070005B030BD2B4664
:10973000EBE700BF10B4EFF30383103B5BB203F120
:10974000C001144A144C52F821006FF3104042F843
:10975000210054F823305A69D9698A4206D2D3E9E4
:109760000240A8B1805CE07001325A618A4202D0A6
:109770005DF8044B70471A69002AF9D19A685DF8C0
:10978000044B937803F07B0343F00403937070471A
:10979000E070E9E700600040440A002010B4EFF3F5
:1097A0000383103B5BB203F1C001174A174C52F818
:1097B00021006FF3104042F8210054F823305A6919
:1097C000D9698A4206D2D3E90240D0B1805CE07008
:1097D00001325A619A698A4207D2986819694079B8
:1097E000541C9C618854D3E90621914206D19A68A1
:1097F000937803F03B0343F0040393705DF8044B4C
:109800007047E070E4E700BF00600040440A0020B9
:1098100010B5EFF30384103C0A4B64B2012153F8F6
:1098200024008268937803F003039370FFF762FFCC
:10983000C034054B53F824206FF3104243F8242022
:1098400010BD00BF440A00200060004010B5EFF3D7
:109850000384103C0C4B64B24FF0840C53F824008A
:1098600083689A7802F003029A701A7983F804C028
:109870000421FFF73FFFC034044B53F824206FF35B
:10988000104243F8242010BD440A0020006000402C
:1098900003685969A1B190F82D3070B5044603F002
:1098A000FF0563B98A68038C96680868A1692A462F
:1098B000B047E269C4E90852012384F8333070BD2F
:1098C000704700BF70B5866B82B004460B466D468C
:1098D0003EB396E8030085E80300E26B337123682A
:1098E00032605A6912B194F82D10A1B19B6913B17D
:1098F00094F82D2052B9636B30469847A36B1BB187
:1099000095E8030083E8030002B070BD9A68186808
:1099100013699847EFE7936810681B6998472368B5
:10992000E4E72E46D9E700BFEFF30383103B5BB2B9
:10993000044AC03352F823106FF3104142F8231049
:10994000704700BF0060004070B5EFF30383103B29
:109950005BB2614AC03352F823106FF3104142F8F2
:109960002310EFF30383103B5C4A5BB252F82340B1
:109970002269137BC3F30000DB072CD494F82C304E
:1099800094F82A10994216D094F82D1009B1022BA0
:1099900041D02046FFF77CFF236994F82820DA7035
:1099A00094F82B2094F82C30013A013384F82B20C2
:1099B00084F82C3070BD94F8333003F0FF053BBBC6
:1099C000236A93BB94F82E3063B352210123D172E2
:1099D00084F8303070BD94F82D308BB194F831306C
:1099E00073B9636AA1695279CA54D4E9082394F817
:1099F0002E10013A0133C4E9082379B12269E4E762
:109A0000002001215423206284F82F10D37270BDEE
:109A100084F8330070BD5223D37270BD2369542281
:109A2000DA7270BD5423D37270BD94F82D1041B911
:109A3000616AA069013B405C0131C4E90831D07022
:109A400070BD94F8311000292ED0216884F831506F
:109A50004869002838D08969002935D0E069022892
:109A600032D98E68831E0868B668F42191709BB263
:109A7000A2692946B0472268E36952699168106873
:109A80008E68023B9BB22A462946B047E3692269A9
:109A90000220023BC4E90803012184F833100023AB
:109AA000FF209372D070CBE7636AA1695279CA54E0
:109AB000D4E90832013B0132012BC4E908322269A2
:109AC00004D0FF20D070BBE7012BE8D12023FF207A
:109AD0009372D070B4E700BF00600040440A0020D9
